Archive member included to satisfy reference by file (symbol)

c:/ac6/systemworkbench/plugins/fr.ac6.mcu.externaltools.arm-none.win32_1.15.0.201708311556/tools/compiler/bin/../lib/gcc/arm-none-eabi/6.3.1/thumb/v7e-m/fpv4-sp/hard\libgcc.a(_aeabi_uldivmod.o)
                              Drivers/STM32L4xx_HAL_Driver/stm32l4xx_hal_uart.o (__aeabi_uldivmod)
c:/ac6/systemworkbench/plugins/fr.ac6.mcu.externaltools.arm-none.win32_1.15.0.201708311556/tools/compiler/bin/../lib/gcc/arm-none-eabi/6.3.1/thumb/v7e-m/fpv4-sp/hard\libgcc.a(_udivmoddi4.o)
                              c:/ac6/systemworkbench/plugins/fr.ac6.mcu.externaltools.arm-none.win32_1.15.0.201708311556/tools/compiler/bin/../lib/gcc/arm-none-eabi/6.3.1/thumb/v7e-m/fpv4-sp/hard\libgcc.a(_aeabi_uldivmod.o) (__udivmoddi4)
c:/ac6/systemworkbench/plugins/fr.ac6.mcu.externaltools.arm-none.win32_1.15.0.201708311556/tools/compiler/bin/../lib/gcc/arm-none-eabi/6.3.1/thumb/v7e-m/fpv4-sp/hard\libgcc.a(_dvmd_tls.o)
                              c:/ac6/systemworkbench/plugins/fr.ac6.mcu.externaltools.arm-none.win32_1.15.0.201708311556/tools/compiler/bin/../lib/gcc/arm-none-eabi/6.3.1/thumb/v7e-m/fpv4-sp/hard\libgcc.a(_aeabi_uldivmod.o) (__aeabi_ldiv0)
c:/ac6/systemworkbench/plugins/fr.ac6.mcu.externaltools.arm-none.win32_1.15.0.201708311556/tools/compiler/bin/../lib/gcc/arm-none-eabi/6.3.1/../../../../arm-none-eabi/lib/thumb/v7e-m/fpv4-sp/hard\libc_nano.a(lib_a-exit.o)
                              c:/ac6/systemworkbench/plugins/fr.ac6.mcu.externaltools.arm-none.win32_1.15.0.201708311556/tools/compiler/bin/../lib/gcc/arm-none-eabi/6.3.1/../../../../arm-none-eabi/lib/thumb/v7e-m/fpv4-sp/hard/crt0.o (exit)
c:/ac6/systemworkbench/plugins/fr.ac6.mcu.externaltools.arm-none.win32_1.15.0.201708311556/tools/compiler/bin/../lib/gcc/arm-none-eabi/6.3.1/../../../../arm-none-eabi/lib/thumb/v7e-m/fpv4-sp/hard\libc_nano.a(lib_a-impure.o)
                              c:/ac6/systemworkbench/plugins/fr.ac6.mcu.externaltools.arm-none.win32_1.15.0.201708311556/tools/compiler/bin/../lib/gcc/arm-none-eabi/6.3.1/../../../../arm-none-eabi/lib/thumb/v7e-m/fpv4-sp/hard\libc_nano.a(lib_a-exit.o) (_global_impure_ptr)
c:/ac6/systemworkbench/plugins/fr.ac6.mcu.externaltools.arm-none.win32_1.15.0.201708311556/tools/compiler/bin/../lib/gcc/arm-none-eabi/6.3.1/../../../../arm-none-eabi/lib/thumb/v7e-m/fpv4-sp/hard\libc_nano.a(lib_a-init.o)
                              c:/ac6/systemworkbench/plugins/fr.ac6.mcu.externaltools.arm-none.win32_1.15.0.201708311556/tools/compiler/bin/../lib/gcc/arm-none-eabi/6.3.1/../../../../arm-none-eabi/lib/thumb/v7e-m/fpv4-sp/hard/crt0.o (__libc_init_array)
c:/ac6/systemworkbench/plugins/fr.ac6.mcu.externaltools.arm-none.win32_1.15.0.201708311556/tools/compiler/bin/../lib/gcc/arm-none-eabi/6.3.1/../../../../arm-none-eabi/lib/thumb/v7e-m/fpv4-sp/hard\libc_nano.a(lib_a-malloc.o)
                              Middlewares/STM32_USBD_Library/Class/HID/usbd_hid.o (malloc)
c:/ac6/systemworkbench/plugins/fr.ac6.mcu.externaltools.arm-none.win32_1.15.0.201708311556/tools/compiler/bin/../lib/gcc/arm-none-eabi/6.3.1/../../../../arm-none-eabi/lib/thumb/v7e-m/fpv4-sp/hard\libc_nano.a(lib_a-memset.o)
                              c:/ac6/systemworkbench/plugins/fr.ac6.mcu.externaltools.arm-none.win32_1.15.0.201708311556/tools/compiler/bin/../lib/gcc/arm-none-eabi/6.3.1/../../../../arm-none-eabi/lib/thumb/v7e-m/fpv4-sp/hard/crt0.o (memset)
c:/ac6/systemworkbench/plugins/fr.ac6.mcu.externaltools.arm-none.win32_1.15.0.201708311556/tools/compiler/bin/../lib/gcc/arm-none-eabi/6.3.1/../../../../arm-none-eabi/lib/thumb/v7e-m/fpv4-sp/hard\libc_nano.a(lib_a-nano-freer.o)
                              c:/ac6/systemworkbench/plugins/fr.ac6.mcu.externaltools.arm-none.win32_1.15.0.201708311556/tools/compiler/bin/../lib/gcc/arm-none-eabi/6.3.1/../../../../arm-none-eabi/lib/thumb/v7e-m/fpv4-sp/hard\libc_nano.a(lib_a-malloc.o) (_free_r)
c:/ac6/systemworkbench/plugins/fr.ac6.mcu.externaltools.arm-none.win32_1.15.0.201708311556/tools/compiler/bin/../lib/gcc/arm-none-eabi/6.3.1/../../../../arm-none-eabi/lib/thumb/v7e-m/fpv4-sp/hard\libc_nano.a(lib_a-nano-mallocr.o)
                              c:/ac6/systemworkbench/plugins/fr.ac6.mcu.externaltools.arm-none.win32_1.15.0.201708311556/tools/compiler/bin/../lib/gcc/arm-none-eabi/6.3.1/../../../../arm-none-eabi/lib/thumb/v7e-m/fpv4-sp/hard\libc_nano.a(lib_a-malloc.o) (_malloc_r)
c:/ac6/systemworkbench/plugins/fr.ac6.mcu.externaltools.arm-none.win32_1.15.0.201708311556/tools/compiler/bin/../lib/gcc/arm-none-eabi/6.3.1/../../../../arm-none-eabi/lib/thumb/v7e-m/fpv4-sp/hard\libc_nano.a(lib_a-sbrkr.o)
                              c:/ac6/systemworkbench/plugins/fr.ac6.mcu.externaltools.arm-none.win32_1.15.0.201708311556/tools/compiler/bin/../lib/gcc/arm-none-eabi/6.3.1/../../../../arm-none-eabi/lib/thumb/v7e-m/fpv4-sp/hard\libc_nano.a(lib_a-nano-mallocr.o) (_sbrk_r)
c:/ac6/systemworkbench/plugins/fr.ac6.mcu.externaltools.arm-none.win32_1.15.0.201708311556/tools/compiler/bin/../lib/gcc/arm-none-eabi/6.3.1/../../../../arm-none-eabi/lib/thumb/v7e-m/fpv4-sp/hard\libc_nano.a(lib_a-mlock.o)
                              c:/ac6/systemworkbench/plugins/fr.ac6.mcu.externaltools.arm-none.win32_1.15.0.201708311556/tools/compiler/bin/../lib/gcc/arm-none-eabi/6.3.1/../../../../arm-none-eabi/lib/thumb/v7e-m/fpv4-sp/hard\libc_nano.a(lib_a-nano-freer.o) (__malloc_lock)
c:/ac6/systemworkbench/plugins/fr.ac6.mcu.externaltools.arm-none.win32_1.15.0.201708311556/tools/compiler/bin/../lib/gcc/arm-none-eabi/6.3.1/../../../../arm-none-eabi/lib/thumb/v7e-m/fpv4-sp/hard\libc_nano.a(lib_a-reent.o)
                              c:/ac6/systemworkbench/plugins/fr.ac6.mcu.externaltools.arm-none.win32_1.15.0.201708311556/tools/compiler/bin/../lib/gcc/arm-none-eabi/6.3.1/../../../../arm-none-eabi/lib/thumb/v7e-m/fpv4-sp/hard\libc_nano.a(lib_a-sbrkr.o) (errno)
c:/ac6/systemworkbench/plugins/fr.ac6.mcu.externaltools.arm-none.win32_1.15.0.201708311556/tools/compiler/bin/../lib/gcc/arm-none-eabi/6.3.1/../../../../arm-none-eabi/lib/thumb/v7e-m/fpv4-sp/hard\libnosys.a(sbrk.o)
                              c:/ac6/systemworkbench/plugins/fr.ac6.mcu.externaltools.arm-none.win32_1.15.0.201708311556/tools/compiler/bin/../lib/gcc/arm-none-eabi/6.3.1/../../../../arm-none-eabi/lib/thumb/v7e-m/fpv4-sp/hard\libc_nano.a(lib_a-sbrkr.o) (_sbrk)
c:/ac6/systemworkbench/plugins/fr.ac6.mcu.externaltools.arm-none.win32_1.15.0.201708311556/tools/compiler/bin/../lib/gcc/arm-none-eabi/6.3.1/../../../../arm-none-eabi/lib/thumb/v7e-m/fpv4-sp/hard\libnosys.a(_exit.o)
                              c:/ac6/systemworkbench/plugins/fr.ac6.mcu.externaltools.arm-none.win32_1.15.0.201708311556/tools/compiler/bin/../lib/gcc/arm-none-eabi/6.3.1/../../../../arm-none-eabi/lib/thumb/v7e-m/fpv4-sp/hard\libc_nano.a(lib_a-exit.o) (_exit)

Allocating common symbols
Common symbol       size              file

hDiscoUart          0x78              Drivers/BSP/B-L475E-IOT01/stm32l475e_iot01.o
errno               0x4               c:/ac6/systemworkbench/plugins/fr.ac6.mcu.externaltools.arm-none.win32_1.15.0.201708311556/tools/compiler/bin/../lib/gcc/arm-none-eabi/6.3.1/../../../../arm-none-eabi/lib/thumb/v7e-m/fpv4-sp/hard\libc_nano.a(lib_a-reent.o)
hpcd                0x3cc             Application/User/usbd_conf.o
uwTick              0x4               Drivers/STM32L4xx_HAL_Driver/stm32l4xx_hal.o
pFlash              0x20              Drivers/STM32L4xx_HAL_Driver/stm32l4xx_hal_flash.o
HID_Buffer          0x4               Application/User/stm32l4xx_it.o
USBD_Device         0x224             Application/User/main.o
hI2cHandler         0x4c              Drivers/BSP/B-L475E-IOT01/stm32l475e_iot01.o
USBD_StrDesc        0x100             Application/User/usbd_desc.o

Discarded input sections

 .text          0x00000000        0x0 c:/ac6/systemworkbench/plugins/fr.ac6.mcu.externaltools.arm-none.win32_1.15.0.201708311556/tools/compiler/bin/../lib/gcc/arm-none-eabi/6.3.1/thumb/v7e-m/fpv4-sp/hard/crti.o
 .data          0x00000000        0x0 c:/ac6/systemworkbench/plugins/fr.ac6.mcu.externaltools.arm-none.win32_1.15.0.201708311556/tools/compiler/bin/../lib/gcc/arm-none-eabi/6.3.1/thumb/v7e-m/fpv4-sp/hard/crti.o
 .bss           0x00000000        0x0 c:/ac6/systemworkbench/plugins/fr.ac6.mcu.externaltools.arm-none.win32_1.15.0.201708311556/tools/compiler/bin/../lib/gcc/arm-none-eabi/6.3.1/thumb/v7e-m/fpv4-sp/hard/crti.o
 .data          0x00000000        0x4 c:/ac6/systemworkbench/plugins/fr.ac6.mcu.externaltools.arm-none.win32_1.15.0.201708311556/tools/compiler/bin/../lib/gcc/arm-none-eabi/6.3.1/thumb/v7e-m/fpv4-sp/hard/crtbegin.o
 .text          0x00000000       0x74 c:/ac6/systemworkbench/plugins/fr.ac6.mcu.externaltools.arm-none.win32_1.15.0.201708311556/tools/compiler/bin/../lib/gcc/arm-none-eabi/6.3.1/../../../../arm-none-eabi/lib/thumb/v7e-m/fpv4-sp/hard/crt0.o
 .data          0x00000000        0x0 c:/ac6/systemworkbench/plugins/fr.ac6.mcu.externaltools.arm-none.win32_1.15.0.201708311556/tools/compiler/bin/../lib/gcc/arm-none-eabi/6.3.1/../../../../arm-none-eabi/lib/thumb/v7e-m/fpv4-sp/hard/crt0.o
 .bss           0x00000000        0x0 c:/ac6/systemworkbench/plugins/fr.ac6.mcu.externaltools.arm-none.win32_1.15.0.201708311556/tools/compiler/bin/../lib/gcc/arm-none-eabi/6.3.1/../../../../arm-none-eabi/lib/thumb/v7e-m/fpv4-sp/hard/crt0.o
 .ARM.extab     0x00000000        0x0 c:/ac6/systemworkbench/plugins/fr.ac6.mcu.externaltools.arm-none.win32_1.15.0.201708311556/tools/compiler/bin/../lib/gcc/arm-none-eabi/6.3.1/../../../../arm-none-eabi/lib/thumb/v7e-m/fpv4-sp/hard/crt0.o
 .ARM.exidx     0x00000000        0x8 c:/ac6/systemworkbench/plugins/fr.ac6.mcu.externaltools.arm-none.win32_1.15.0.201708311556/tools/compiler/bin/../lib/gcc/arm-none-eabi/6.3.1/../../../../arm-none-eabi/lib/thumb/v7e-m/fpv4-sp/hard/crt0.o
 .ARM.attributes
                0x00000000       0x20 c:/ac6/systemworkbench/plugins/fr.ac6.mcu.externaltools.arm-none.win32_1.15.0.201708311556/tools/compiler/bin/../lib/gcc/arm-none-eabi/6.3.1/../../../../arm-none-eabi/lib/thumb/v7e-m/fpv4-sp/hard/crt0.o
 .text          0x00000000       0x14 Application/SW4STM32/startup_stm32l475xx.o
 .data          0x00000000        0x0 Application/SW4STM32/startup_stm32l475xx.o
 .bss           0x00000000        0x0 Application/SW4STM32/startup_stm32l475xx.o
 .group         0x00000000        0x8 Application/User/main.o
 .group         0x00000000        0x8 Application/User/main.o
 .group         0x00000000        0x8 Application/User/main.o
 .group         0x00000000        0x8 Application/User/main.o
Memory Configuration

Name             Origin             Length             Attributes
RAM              0x20000000         0x00018000         xrw
RAM2             0x10000000         0x00008000         xrw
FLASH            0x08000000         0x00100000         xr
*default*        0x00000000         0xffffffff

Linker script and memory map

LOAD c:/ac6/systemworkbench/plugins/fr.ac6.mcu.externaltools.arm-none.win32_1.15.0.201708311556/tools/compiler/bin/../lib/gcc/arm-none-eabi/6.3.1/thumb/v7e-m/fpv4-sp/hard/crti.o
LOAD c:/ac6/systemworkbench/plugins/fr.ac6.mcu.externaltools.arm-none.win32_1.15.0.201708311556/tools/compiler/bin/../lib/gcc/arm-none-eabi/6.3.1/thumb/v7e-m/fpv4-sp/hard/crtbegin.o
LOAD c:/ac6/systemworkbench/plugins/fr.ac6.mcu.externaltools.arm-none.win32_1.15.0.201708311556/tools/compiler/bin/../lib/gcc/arm-none-eabi/6.3.1/../../../../arm-none-eabi/lib/thumb/v7e-m/fpv4-sp/hard/crt0.o
LOAD Application/SW4STM32/startup_stm32l475xx.o
LOAD Application/User/main.o
LOAD Application/User/stm32l4xx_it.o
LOAD Application/User/usbd_conf.o
LOAD Application/User/usbd_desc.o
LOAD Drivers/BSP/B-L475E-IOT01/stm32l475e_iot01.o
LOAD Drivers/CMSIS/system_stm32l4xx.o
LOAD Drivers/STM32L4xx_HAL_Driver/stm32l4xx_hal.o
LOAD Drivers/STM32L4xx_HAL_Driver/stm32l4xx_hal_cortex.o
LOAD Drivers/STM32L4xx_HAL_Driver/stm32l4xx_hal_dma.o
LOAD Drivers/STM32L4xx_HAL_Driver/stm32l4xx_hal_flash.o
LOAD Drivers/STM32L4xx_HAL_Driver/stm32l4xx_hal_flash_ex.o
LOAD Drivers/STM32L4xx_HAL_Driver/stm32l4xx_hal_gpio.o
LOAD Drivers/STM32L4xx_HAL_Driver/stm32l4xx_hal_i2c.o
LOAD Drivers/STM32L4xx_HAL_Driver/stm32l4xx_hal_i2c_ex.o
LOAD Drivers/STM32L4xx_HAL_Driver/stm32l4xx_hal_pcd.o
LOAD Drivers/STM32L4xx_HAL_Driver/stm32l4xx_hal_pcd_ex.o
LOAD Drivers/STM32L4xx_HAL_Driver/stm32l4xx_hal_pwr.o
LOAD Drivers/STM32L4xx_HAL_Driver/stm32l4xx_hal_pwr_ex.o
LOAD Drivers/STM32L4xx_HAL_Driver/stm32l4xx_hal_rcc.o
LOAD Drivers/STM32L4xx_HAL_Driver/stm32l4xx_hal_rcc_ex.o
LOAD Drivers/STM32L4xx_HAL_Driver/stm32l4xx_hal_uart.o
LOAD Drivers/STM32L4xx_HAL_Driver/stm32l4xx_hal_uart_ex.o
LOAD Drivers/STM32L4xx_HAL_Driver/stm32l4xx_ll_usb.o
LOAD Middlewares/STM32_USBD_Library/Class/HID/usbd_hid.o
LOAD Middlewares/STM32_USBD_Library/Core/usbd_core.o
LOAD Middlewares/STM32_USBD_Library/Core/usbd_ctlreq.o
LOAD Middlewares/STM32_USBD_Library/Core/usbd_ioreq.o
LOAD c:/ac6/systemworkbench/plugins/fr.ac6.mcu.externaltools.arm-none.win32_1.15.0.201708311556/tools/compiler/bin/../lib/gcc/arm-none-eabi/6.3.1/../../../../arm-none-eabi/lib/thumb/v7e-m/fpv4-sp/hard\libm.a
START GROUP
LOAD c:/ac6/systemworkbench/plugins/fr.ac6.mcu.externaltools.arm-none.win32_1.15.0.201708311556/tools/compiler/bin/../lib/gcc/arm-none-eabi/6.3.1/thumb/v7e-m/fpv4-sp/hard\libgcc.a
LOAD c:/ac6/systemworkbench/plugins/fr.ac6.mcu.externaltools.arm-none.win32_1.15.0.201708311556/tools/compiler/bin/../lib/gcc/arm-none-eabi/6.3.1/../../../../arm-none-eabi/lib/thumb/v7e-m/fpv4-sp/hard\libc_nano.a
END GROUP
START GROUP
LOAD c:/ac6/systemworkbench/plugins/fr.ac6.mcu.externaltools.arm-none.win32_1.15.0.201708311556/tools/compiler/bin/../lib/gcc/arm-none-eabi/6.3.1/thumb/v7e-m/fpv4-sp/hard\libgcc.a
LOAD c:/ac6/systemworkbench/plugins/fr.ac6.mcu.externaltools.arm-none.win32_1.15.0.201708311556/tools/compiler/bin/../lib/gcc/arm-none-eabi/6.3.1/../../../../arm-none-eabi/lib/thumb/v7e-m/fpv4-sp/hard\libc_nano.a
LOAD c:/ac6/systemworkbench/plugins/fr.ac6.mcu.externaltools.arm-none.win32_1.15.0.201708311556/tools/compiler/bin/../lib/gcc/arm-none-eabi/6.3.1/../../../../arm-none-eabi/lib/thumb/v7e-m/fpv4-sp/hard\libnosys.a
END GROUP
START GROUP
LOAD c:/ac6/systemworkbench/plugins/fr.ac6.mcu.externaltools.arm-none.win32_1.15.0.201708311556/tools/compiler/bin/../lib/gcc/arm-none-eabi/6.3.1/thumb/v7e-m/fpv4-sp/hard\libgcc.a
LOAD c:/ac6/systemworkbench/plugins/fr.ac6.mcu.externaltools.arm-none.win32_1.15.0.201708311556/tools/compiler/bin/../lib/gcc/arm-none-eabi/6.3.1/../../../../arm-none-eabi/lib/thumb/v7e-m/fpv4-sp/hard\libc_nano.a
LOAD c:/ac6/systemworkbench/plugins/fr.ac6.mcu.externaltools.arm-none.win32_1.15.0.201708311556/tools/compiler/bin/../lib/gcc/arm-none-eabi/6.3.1/../../../../arm-none-eabi/lib/thumb/v7e-m/fpv4-sp/hard\libnosys.a
END GROUP
LOAD c:/ac6/systemworkbench/plugins/fr.ac6.mcu.externaltools.arm-none.win32_1.15.0.201708311556/tools/compiler/bin/../lib/gcc/arm-none-eabi/6.3.1/thumb/v7e-m/fpv4-sp/hard/crtend.o
LOAD c:/ac6/systemworkbench/plugins/fr.ac6.mcu.externaltools.arm-none.win32_1.15.0.201708311556/tools/compiler/bin/../lib/gcc/arm-none-eabi/6.3.1/thumb/v7e-m/fpv4-sp/hard/crtn.o
                0x20018000                _estack = 0x20018000
                0x00000200                _Min_Heap_Size = 0x200
                0x00000400                _Min_Stack_Size = 0x400

.isr_vector     0x08000000      0x188
                0x08000000                . = ALIGN (0x8)
 *(.isr_vector)
 .isr_vector    0x08000000      0x188 Application/SW4STM32/startup_stm32l475xx.o
                0x08000000                g_pfnVectors
                0x08000188                . = ALIGN (0x8)

.text           0x08000188     0x3258
                0x08000188                . = ALIGN (0x8)
 *(.text)
 .text          0x08000188       0x6c c:/ac6/systemworkbench/plugins/fr.ac6.mcu.externaltools.arm-none.win32_1.15.0.201708311556/tools/compiler/bin/../lib/gcc/arm-none-eabi/6.3.1/thumb/v7e-m/fpv4-sp/hard/crtbegin.o
 *(.text*)
 .text.Reset_Handler
                0x080001f4       0x50 Application/SW4STM32/startup_stm32l475xx.o
                0x080001f4                Reset_Handler
 .text.Default_Handler
                0x08000244        0x2 Application/SW4STM32/startup_stm32l475xx.o
                0x08000244                RTC_Alarm_IRQHandler
                0x08000244                EXTI2_IRQHandler
                0x08000244                TIM8_TRG_COM_IRQHandler
                0x08000244                TIM8_CC_IRQHandler
                0x08000244                TIM1_CC_IRQHandler
                0x08000244                TSC_IRQHandler
                0x08000244                TAMP_STAMP_IRQHandler
                0x08000244                EXTI3_IRQHandler
                0x08000244                LPTIM2_IRQHandler
                0x08000244                DFSDM1_FLT1_IRQHandler
                0x08000244                I2C3_ER_IRQHandler
                0x08000244                DFSDM1_FLT2_IRQHandler
                0x08000244                EXTI0_IRQHandler
                0x08000244                I2C2_EV_IRQHandler
                0x08000244                CAN1_RX0_IRQHandler
                0x08000244                FPU_IRQHandler
                0x08000244                TIM1_UP_TIM16_IRQHandler
                0x08000244                ADC1_2_IRQHandler
                0x08000244                SPI1_IRQHandler
                0x08000244                TIM6_DAC_IRQHandler
                0x08000244                TIM8_UP_IRQHandler
                0x08000244                DMA2_Channel2_IRQHandler
                0x08000244                DMA1_Channel4_IRQHandler
                0x08000244                SAI2_IRQHandler
                0x08000244                DFSDM1_FLT3_IRQHandler
                0x08000244                USART3_IRQHandler
                0x08000244                DMA1_Channel7_IRQHandler
                0x08000244                CAN1_RX1_IRQHandler
                0x08000244                UART5_IRQHandler
                0x08000244                ADC3_IRQHandler
                0x08000244                TIM4_IRQHandler
                0x08000244                DMA2_Channel1_IRQHandler
                0x08000244                QUADSPI_IRQHandler
                0x08000244                I2C1_EV_IRQHandler
                0x08000244                DMA1_Channel6_IRQHandler
                0x08000244                UART4_IRQHandler
                0x08000244                DMA2_Channel4_IRQHandler
                0x08000244                TIM3_IRQHandler
                0x08000244                RCC_IRQHandler
                0x08000244                DMA1_Channel1_IRQHandler
                0x08000244                Default_Handler
                0x08000244                DMA2_Channel7_IRQHandler
                0x08000244                TIM7_IRQHandler
                0x08000244                SDMMC1_IRQHandler
                0x08000244                TIM5_IRQHandler
                0x08000244                I2C3_EV_IRQHandler
                0x08000244                EXTI9_5_IRQHandler
                0x08000244                RTC_WKUP_IRQHandler
                0x08000244                PVD_PVM_IRQHandler
                0x08000244                SPI2_IRQHandler
                0x08000244                CAN1_TX_IRQHandler
                0x08000244                DMA2_Channel5_IRQHandler
                0x08000244                DMA1_Channel5_IRQHandler
                0x08000244                EXTI4_IRQHandler
                0x08000244                RNG_IRQHandler
                0x08000244                TIM1_TRG_COM_TIM17_IRQHandler
                0x08000244                DMA1_Channel3_IRQHandler
                0x08000244                COMP_IRQHandler
                0x08000244                WWDG_IRQHandler
                0x08000244                LPUART1_IRQHandler
                0x08000244                DMA2_Channel6_IRQHandler
                0x08000244                TIM2_IRQHandler
                0x08000244                EXTI1_IRQHandler
                0x08000244                USART2_IRQHandler
                0x08000244                DFSDM1_FLT0_IRQHandler
                0x08000244                I2C2_ER_IRQHandler
                0x08000244                DMA1_Channel2_IRQHandler
                0x08000244                TIM8_BRK_IRQHandler
                0x08000244                CAN1_SCE_IRQHandler
                0x08000244                FLASH_IRQHandler
                0x08000244                USART1_IRQHandler
                0x08000244                SPI3_IRQHandler
                0x08000244                I2C1_ER_IRQHandler
                0x08000244                FMC_IRQHandler
                0x08000244                SWPMI1_IRQHandler
                0x08000244                LPTIM1_IRQHandler
                0x08000244                SAI1_IRQHandler
                0x08000244                DMA2_Channel3_IRQHandler
                0x08000244                TIM1_BRK_TIM15_IRQHandler
 *fill*         0x08000246        0x2 
 .text.startup.main
                0x08000248       0xcc Application/User/main.o
                0x08000248                main
 .text.NMI_Handler
                0x08000314        0x2 Application/User/stm32l4xx_it.o
                0x08000314                NMI_Handler
 .text.HardFault_Handler
                0x08000316        0x2 Application/User/stm32l4xx_it.o
                0x08000316                HardFault_Handler
 .text.MemManage_Handler
                0x08000318        0x2 Application/User/stm32l4xx_it.o
                0x08000318                MemManage_Handler
 .text.BusFault_Handler
                0x0800031a        0x2 Application/User/stm32l4xx_it.o
                0x0800031a                BusFault_Handler
 .text.UsageFault_Handler
                0x0800031c        0x2 Application/User/stm32l4xx_it.o
                0x0800031c                UsageFault_Handler
 .text.SVC_Handler
                0x0800031e        0x2 Application/User/stm32l4xx_it.o
                0x0800031e                SVC_Handler
 .text.DebugMon_Handler
                0x08000320        0x2 Application/User/stm32l4xx_it.o
                0x08000320                DebugMon_Handler
 .text.PendSV_Handler
                0x08000322        0x2 Application/User/stm32l4xx_it.o
                0x08000322                PendSV_Handler
 .text.SysTick_Handler
                0x08000324       0x54 Application/User/stm32l4xx_it.o
                0x08000324                SysTick_Handler
 .text.OTG_FS_IRQHandler
                0x08000378        0xc Application/User/stm32l4xx_it.o
                0x08000378                OTG_FS_IRQHandler
 .text.EXTI15_10_IRQHandler
                0x08000384        0x8 Application/User/stm32l4xx_it.o
                0x08000384                EXTI15_10_IRQHandler
 .text.SystemClockConfig_STOP
                0x0800038c       0x3c Application/User/usbd_conf.o
 .text.HAL_PCD_MspInit
                0x080003c8       0xa8 Application/User/usbd_conf.o
                0x080003c8                HAL_PCD_MspInit
 .text.HAL_PCD_SetupStageCallback
                0x08000470        0xc Application/User/usbd_conf.o
                0x08000470                HAL_PCD_SetupStageCallback
 .text.HAL_PCD_DataOutStageCallback
                0x0800047c       0x12 Application/User/usbd_conf.o
                0x0800047c                HAL_PCD_DataOutStageCallback
 .text.HAL_PCD_DataInStageCallback
                0x0800048e       0x10 Application/User/usbd_conf.o
                0x0800048e                HAL_PCD_DataInStageCallback
 .text.HAL_PCD_SOFCallback
                0x0800049e        0x8 Application/User/usbd_conf.o
                0x0800049e                HAL_PCD_SOFCallback
 .text.HAL_PCD_ResetCallback
                0x080004a6       0x1a Application/User/usbd_conf.o
                0x080004a6                HAL_PCD_ResetCallback
 .text.HAL_PCD_SuspendCallback
                0x080004c0       0x34 Application/User/usbd_conf.o
                0x080004c0                HAL_PCD_SuspendCallback
 .text.HAL_PCD_ResumeCallback
                0x080004f4       0x40 Application/User/usbd_conf.o
                0x080004f4                HAL_PCD_ResumeCallback
 .text.HAL_PCD_ISOOUTIncompleteCallback
                0x08000534        0x8 Application/User/usbd_conf.o
                0x08000534                HAL_PCD_ISOOUTIncompleteCallback
 .text.HAL_PCD_ISOINIncompleteCallback
                0x0800053c        0x8 Application/User/usbd_conf.o
                0x0800053c                HAL_PCD_ISOINIncompleteCallback
 .text.HAL_PCD_ConnectCallback
                0x08000544        0x8 Application/User/usbd_conf.o
                0x08000544                HAL_PCD_ConnectCallback
 .text.HAL_PCD_DisconnectCallback
                0x0800054c        0x8 Application/User/usbd_conf.o
                0x0800054c                HAL_PCD_DisconnectCallback
 .text.USBD_LL_Init
                0x08000554       0x5c Application/User/usbd_conf.o
                0x08000554                USBD_LL_Init
 .text.USBD_LL_Start
                0x080005b0        0xe Application/User/usbd_conf.o
                0x080005b0                USBD_LL_Start
 .text.USBD_LL_OpenEP
                0x080005be       0x14 Application/User/usbd_conf.o
                0x080005be                USBD_LL_OpenEP
 .text.USBD_LL_CloseEP
                0x080005d2        0xe Application/User/usbd_conf.o
                0x080005d2                USBD_LL_CloseEP
 .text.USBD_LL_StallEP
                0x080005e0        0xe Application/User/usbd_conf.o
                0x080005e0                USBD_LL_StallEP
 .text.USBD_LL_ClearStallEP
                0x080005ee        0xe Application/User/usbd_conf.o
                0x080005ee                USBD_LL_ClearStallEP
 .text.USBD_LL_IsStallEP
                0x080005fc       0x26 Application/User/usbd_conf.o
                0x080005fc                USBD_LL_IsStallEP
 .text.USBD_LL_SetUSBAddress
                0x08000622        0xe Application/User/usbd_conf.o
                0x08000622                USBD_LL_SetUSBAddress
 .text.USBD_LL_Transmit
                0x08000630        0xe Application/User/usbd_conf.o
                0x08000630                USBD_LL_Transmit
 .text.USBD_LL_PrepareReceive
                0x0800063e        0xe Application/User/usbd_conf.o
                0x0800063e                USBD_LL_PrepareReceive
 .text.HAL_GPIO_EXTI_Callback
                0x0800064c       0x74 Application/User/usbd_conf.o
                0x0800064c                HAL_GPIO_EXTI_Callback
 .text.USBD_HID_DeviceDescriptor
                0x080006c0        0xc Application/User/usbd_desc.o
                0x080006c0                USBD_HID_DeviceDescriptor
 .text.USBD_HID_LangIDStrDescriptor
                0x080006cc        0xc Application/User/usbd_desc.o
                0x080006cc                USBD_HID_LangIDStrDescriptor
 .text.IntToUnicode
                0x080006d8       0x28 Application/User/usbd_desc.o
 .text.USBD_HID_SerialStrDescriptor
                0x08000700       0x40 Application/User/usbd_desc.o
                0x08000700                USBD_HID_SerialStrDescriptor
 .text.USBD_HID_ProductStrDescriptor
                0x08000740       0x1c Application/User/usbd_desc.o
                0x08000740                USBD_HID_ProductStrDescriptor
 .text.USBD_HID_ManufacturerStrDescriptor
                0x0800075c       0x1c Application/User/usbd_desc.o
                0x0800075c                USBD_HID_ManufacturerStrDescriptor
 .text.USBD_HID_ConfigStrDescriptor
                0x08000778       0x1c Application/User/usbd_desc.o
                0x08000778                USBD_HID_ConfigStrDescriptor
 .text.USBD_HID_InterfaceStrDescriptor
                0x08000794       0x1c Application/User/usbd_desc.o
                0x08000794                USBD_HID_InterfaceStrDescriptor
 .text.BSP_PB_Init
                0x080007b0       0x7c Drivers/BSP/B-L475E-IOT01/stm32l475e_iot01.o
                0x080007b0                BSP_PB_Init
 .text.SystemInit
                0x0800082c       0x48 Drivers/CMSIS/system_stm32l4xx.o
                0x0800082c                SystemInit
 .text.HAL_MspInit
                0x08000874        0x2 Drivers/STM32L4xx_HAL_Driver/stm32l4xx_hal.o
                0x08000874                HAL_MspInit
 *fill*         0x08000876        0x2 
 .text.HAL_InitTick
                0x08000878       0x28 Drivers/STM32L4xx_HAL_Driver/stm32l4xx_hal.o
                0x08000878                HAL_InitTick
 .text.HAL_Init
                0x080008a0       0x16 Drivers/STM32L4xx_HAL_Driver/stm32l4xx_hal.o
                0x080008a0                HAL_Init
 *fill*         0x080008b6        0x2 
 .text.HAL_IncTick
                0x080008b8       0x10 Drivers/STM32L4xx_HAL_Driver/stm32l4xx_hal.o
                0x080008b8                HAL_IncTick
 .text.HAL_GetTick
                0x080008c8        0xc Drivers/STM32L4xx_HAL_Driver/stm32l4xx_hal.o
                0x080008c8                HAL_GetTick
 .text.HAL_Delay
                0x080008d4       0x1c Drivers/STM32L4xx_HAL_Driver/stm32l4xx_hal.o
                0x080008d4                HAL_Delay
 .text.HAL_NVIC_SetPriorityGrouping
                0x080008f0       0x24 Drivers/STM32L4xx_HAL_Driver/stm32l4xx_hal_cortex.o
                0x080008f0                HAL_NVIC_SetPriorityGrouping
 .text.HAL_NVIC_SetPriority
                0x08000914       0x68 Drivers/STM32L4xx_HAL_Driver/stm32l4xx_hal_cortex.o
                0x08000914                HAL_NVIC_SetPriority
 .text.HAL_NVIC_EnableIRQ
                0x0800097c       0x18 Drivers/STM32L4xx_HAL_Driver/stm32l4xx_hal_cortex.o
                0x0800097c                HAL_NVIC_EnableIRQ
 .text.HAL_SYSTICK_Config
                0x08000994       0x2c Drivers/STM32L4xx_HAL_Driver/stm32l4xx_hal_cortex.o
                0x08000994                HAL_SYSTICK_Config
 .text.HAL_GPIO_Init
                0x080009c0      0x1b8 Drivers/STM32L4xx_HAL_Driver/stm32l4xx_hal_gpio.o
                0x080009c0                HAL_GPIO_Init
 .text.HAL_GPIO_EXTI_IRQHandler
                0x08000b78       0x18 Drivers/STM32L4xx_HAL_Driver/stm32l4xx_hal_gpio.o
                0x08000b78                HAL_GPIO_EXTI_IRQHandler
 .text.HAL_PCD_Init
                0x08000b90      0x10a Drivers/STM32L4xx_HAL_Driver/stm32l4xx_hal_pcd.o
                0x08000b90                HAL_PCD_Init
 .text.HAL_PCD_Start
                0x08000c9a       0x2a Drivers/STM32L4xx_HAL_Driver/stm32l4xx_hal_pcd.o
                0x08000c9a                HAL_PCD_Start
 .text.HAL_PCD_IRQHandler
                0x08000cc4      0x620 Drivers/STM32L4xx_HAL_Driver/stm32l4xx_hal_pcd.o
                0x08000cc4                HAL_PCD_IRQHandler
 .text.HAL_PCD_SetAddress
                0x080012e4       0x28 Drivers/STM32L4xx_HAL_Driver/stm32l4xx_hal_pcd.o
                0x080012e4                HAL_PCD_SetAddress
 .text.HAL_PCD_EP_Open
                0x0800130c       0x4a Drivers/STM32L4xx_HAL_Driver/stm32l4xx_hal_pcd.o
                0x0800130c                HAL_PCD_EP_Open
 .text.HAL_PCD_EP_Close
                0x08001356       0x46 Drivers/STM32L4xx_HAL_Driver/stm32l4xx_hal_pcd.o
                0x08001356                HAL_PCD_EP_Close
 .text.HAL_PCD_EP_Receive
                0x0800139c       0x40 Drivers/STM32L4xx_HAL_Driver/stm32l4xx_hal_pcd.o
                0x0800139c                HAL_PCD_EP_Receive
 .text.HAL_PCD_EP_Transmit
                0x080013dc       0x3a Drivers/STM32L4xx_HAL_Driver/stm32l4xx_hal_pcd.o
                0x080013dc                HAL_PCD_EP_Transmit
 .text.HAL_PCD_EP_SetStall
                0x08001416       0x58 Drivers/STM32L4xx_HAL_Driver/stm32l4xx_hal_pcd.o
                0x08001416                HAL_PCD_EP_SetStall
 .text.HAL_PCD_EP_ClrStall
                0x0800146e       0x4a Drivers/STM32L4xx_HAL_Driver/stm32l4xx_hal_pcd.o
                0x0800146e                HAL_PCD_EP_ClrStall
 .text.HAL_PCD_ActivateRemoteWakeup
                0x080014b8        0x6 Drivers/STM32L4xx_HAL_Driver/stm32l4xx_hal_pcd.o
                0x080014b8                HAL_PCD_ActivateRemoteWakeup
 .text.HAL_PCD_DeActivateRemoteWakeup
                0x080014be        0x6 Drivers/STM32L4xx_HAL_Driver/stm32l4xx_hal_pcd.o
                0x080014be                HAL_PCD_DeActivateRemoteWakeup
 .text.HAL_PCDEx_SetTxFiFo
                0x080014c4       0x42 Drivers/STM32L4xx_HAL_Driver/stm32l4xx_hal_pcd_ex.o
                0x080014c4                HAL_PCDEx_SetTxFiFo
 .text.HAL_PCDEx_SetRxFiFo
                0x08001506        0x8 Drivers/STM32L4xx_HAL_Driver/stm32l4xx_hal_pcd_ex.o
                0x08001506                HAL_PCDEx_SetRxFiFo
 .text.HAL_PCDEx_ActivateLPM
                0x0800150e       0x26 Drivers/STM32L4xx_HAL_Driver/stm32l4xx_hal_pcd_ex.o
                0x0800150e                HAL_PCDEx_ActivateLPM
 .text.HAL_PCDEx_ActivateBCD
                0x08001534       0x14 Drivers/STM32L4xx_HAL_Driver/stm32l4xx_hal_pcd_ex.o
                0x08001534                HAL_PCDEx_ActivateBCD
 .text.HAL_PCDEx_LPM_Callback
                0x08001548        0x2 Drivers/STM32L4xx_HAL_Driver/stm32l4xx_hal_pcd_ex.o
                0x08001548                HAL_PCDEx_LPM_Callback
 *fill*         0x0800154a        0x2 
 .text.HAL_PWREx_GetVoltageRange
                0x0800154c       0x10 Drivers/STM32L4xx_HAL_Driver/stm32l4xx_hal_pwr_ex.o
                0x0800154c                HAL_PWREx_GetVoltageRange
 .text.HAL_PWREx_EnableVddUSB
                0x0800155c       0x10 Drivers/STM32L4xx_HAL_Driver/stm32l4xx_hal_pwr_ex.o
                0x0800155c                HAL_PWREx_EnableVddUSB
 .text.RCC_SetFlashLatencyFromMSIRange
                0x0800156c       0x84 Drivers/STM32L4xx_HAL_Driver/stm32l4xx_hal_rcc.o
 .text.HAL_RCC_GetSysClockFreq
                0x080015f0       0xd0 Drivers/STM32L4xx_HAL_Driver/stm32l4xx_hal_rcc.o
                0x080015f0                HAL_RCC_GetSysClockFreq
 .text.HAL_RCC_OscConfig
                0x080016c0      0x464 Drivers/STM32L4xx_HAL_Driver/stm32l4xx_hal_rcc.o
                0x080016c0                HAL_RCC_OscConfig
 .text.HAL_RCC_ClockConfig
                0x08001b24      0x16c Drivers/STM32L4xx_HAL_Driver/stm32l4xx_hal_rcc.o
                0x08001b24                HAL_RCC_ClockConfig
 .text.HAL_RCC_GetHCLKFreq
                0x08001c90        0xc Drivers/STM32L4xx_HAL_Driver/stm32l4xx_hal_rcc.o
                0x08001c90                HAL_RCC_GetHCLKFreq
 .text.RCCEx_PLLSAI1_Config
                0x08001c9c      0x11c Drivers/STM32L4xx_HAL_Driver/stm32l4xx_hal_rcc_ex.o
 .text.RCCEx_PLLSAI2_Config
                0x08001db8       0xfc Drivers/STM32L4xx_HAL_Driver/stm32l4xx_hal_rcc_ex.o
 .text.HAL_RCCEx_PeriphCLKConfig
                0x08001eb4      0x3d0 Drivers/STM32L4xx_HAL_Driver/stm32l4xx_hal_rcc_ex.o
                0x08001eb4                HAL_RCCEx_PeriphCLKConfig
 .text.HAL_RCCEx_DisableLSECSS
                0x08002284       0x1c Drivers/STM32L4xx_HAL_Driver/stm32l4xx_hal_rcc_ex.o
                0x08002284                HAL_RCCEx_DisableLSECSS
 .text.HAL_RCCEx_EnableMSIPLLMode
                0x080022a0       0x10 Drivers/STM32L4xx_HAL_Driver/stm32l4xx_hal_rcc_ex.o
                0x080022a0                HAL_RCCEx_EnableMSIPLLMode
 .text.USB_CoreInit
                0x080022b0       0x28 Drivers/STM32L4xx_HAL_Driver/stm32l4xx_ll_usb.o
                0x080022b0                USB_CoreInit
 .text.USB_EnableGlobalInt
                0x080022d8        0xc Drivers/STM32L4xx_HAL_Driver/stm32l4xx_ll_usb.o
                0x080022d8                USB_EnableGlobalInt
 .text.USB_DisableGlobalInt
                0x080022e4        0xc Drivers/STM32L4xx_HAL_Driver/stm32l4xx_ll_usb.o
                0x080022e4                USB_DisableGlobalInt
 .text.USB_SetCurrentMode
                0x080022f0       0x2e Drivers/STM32L4xx_HAL_Driver/stm32l4xx_ll_usb.o
                0x080022f0                USB_SetCurrentMode
 *fill*         0x0800231e        0x2 
 .text.USB_DevInit
                0x08002320      0x130 Drivers/STM32L4xx_HAL_Driver/stm32l4xx_ll_usb.o
                0x08002320                USB_DevInit
 .text.USB_FlushTxFifo
                0x08002450       0x24 Drivers/STM32L4xx_HAL_Driver/stm32l4xx_ll_usb.o
                0x08002450                USB_FlushTxFifo
 .text.USB_FlushRxFifo
                0x08002474       0x20 Drivers/STM32L4xx_HAL_Driver/stm32l4xx_ll_usb.o
                0x08002474                USB_FlushRxFifo
 .text.USB_SetDevSpeed
                0x08002494        0xe Drivers/STM32L4xx_HAL_Driver/stm32l4xx_ll_usb.o
                0x08002494                USB_SetDevSpeed
 .text.USB_ActivateEndpoint
                0x080024a2       0x7e Drivers/STM32L4xx_HAL_Driver/stm32l4xx_ll_usb.o
                0x080024a2                USB_ActivateEndpoint
 .text.USB_DeactivateEndpoint
                0x08002520       0x5a Drivers/STM32L4xx_HAL_Driver/stm32l4xx_ll_usb.o
                0x08002520                USB_DeactivateEndpoint
 *fill*         0x0800257a        0x2 
 .text.USB_EPStartXfer
                0x0800257c      0x170 Drivers/STM32L4xx_HAL_Driver/stm32l4xx_ll_usb.o
                0x0800257c                USB_EPStartXfer
 .text.USB_EP0StartXfer
                0x080026ec       0xc8 Drivers/STM32L4xx_HAL_Driver/stm32l4xx_ll_usb.o
                0x080026ec                USB_EP0StartXfer
 .text.USB_WritePacket
                0x080027b4       0x22 Drivers/STM32L4xx_HAL_Driver/stm32l4xx_ll_usb.o
                0x080027b4                USB_WritePacket
 .text.USB_ReadPacket
                0x080027d6       0x20 Drivers/STM32L4xx_HAL_Driver/stm32l4xx_ll_usb.o
                0x080027d6                USB_ReadPacket
 .text.USB_EPSetStall
                0x080027f6       0x3e Drivers/STM32L4xx_HAL_Driver/stm32l4xx_ll_usb.o
                0x080027f6                USB_EPSetStall
 .text.USB_EPClearStall
                0x08002834       0x32 Drivers/STM32L4xx_HAL_Driver/stm32l4xx_ll_usb.o
                0x08002834                USB_EPClearStall
 .text.USB_SetDevAddress
                0x08002866       0x20 Drivers/STM32L4xx_HAL_Driver/stm32l4xx_ll_usb.o
                0x08002866                USB_SetDevAddress
 .text.USB_DevConnect
                0x08002886       0x18 Drivers/STM32L4xx_HAL_Driver/stm32l4xx_ll_usb.o
                0x08002886                USB_DevConnect
 .text.USB_DevDisconnect
                0x0800289e       0x18 Drivers/STM32L4xx_HAL_Driver/stm32l4xx_ll_usb.o
                0x0800289e                USB_DevDisconnect
 .text.USB_ReadInterrupts
                0x080028b6        0x8 Drivers/STM32L4xx_HAL_Driver/stm32l4xx_ll_usb.o
                0x080028b6                USB_ReadInterrupts
 .text.USB_ReadDevAllOutEpInterrupt
                0x080028be       0x10 Drivers/STM32L4xx_HAL_Driver/stm32l4xx_ll_usb.o
                0x080028be                USB_ReadDevAllOutEpInterrupt
 .text.USB_ReadDevAllInEpInterrupt
                0x080028ce       0x10 Drivers/STM32L4xx_HAL_Driver/stm32l4xx_ll_usb.o
                0x080028ce                USB_ReadDevAllInEpInterrupt
 .text.USB_ReadDevOutEPInterrupt
                0x080028de       0x14 Drivers/STM32L4xx_HAL_Driver/stm32l4xx_ll_usb.o
                0x080028de                USB_ReadDevOutEPInterrupt
 .text.USB_ReadDevInEPInterrupt
                0x080028f2       0x20 Drivers/STM32L4xx_HAL_Driver/stm32l4xx_ll_usb.o
                0x080028f2                USB_ReadDevInEPInterrupt
 .text.USB_GetMode
                0x08002912        0x8 Drivers/STM32L4xx_HAL_Driver/stm32l4xx_ll_usb.o
                0x08002912                USB_GetMode
 .text.USB_ActivateSetup
                0x0800291a       0x36 Drivers/STM32L4xx_HAL_Driver/stm32l4xx_ll_usb.o
                0x0800291a                USB_ActivateSetup
 .text.USB_EP0_OutStart
                0x08002950       0x22 Drivers/STM32L4xx_HAL_Driver/stm32l4xx_ll_usb.o
                0x08002950                USB_EP0_OutStart
 .text.USB_ActivateRemoteWakeup
                0x08002972       0x3c Drivers/STM32L4xx_HAL_Driver/stm32l4xx_ll_usb.o
                0x08002972                USB_ActivateRemoteWakeup
 .text.USB_DeActivateRemoteWakeup
                0x080029ae       0x2c Drivers/STM32L4xx_HAL_Driver/stm32l4xx_ll_usb.o
                0x080029ae                USB_DeActivateRemoteWakeup
 *fill*         0x080029da        0x2 
 .text.USB_CoreReset
                0x080029dc       0x68 Drivers/STM32L4xx_HAL_Driver/stm32l4xx_ll_usb.o
 .text.USBD_HID_GetCfgDesc
                0x08002a44        0xc Middlewares/STM32_USBD_Library/Class/HID/usbd_hid.o
 .text.USBD_HID_DataIn
                0x08002a50        0xa Middlewares/STM32_USBD_Library/Class/HID/usbd_hid.o
 *fill*         0x08002a5a        0x2 
 .text.USBD_HID_GetDeviceQualifierDesc
                0x08002a5c        0xc Middlewares/STM32_USBD_Library/Class/HID/usbd_hid.o
 .text.USBD_HID_Setup
                0x08002a68       0xac Middlewares/STM32_USBD_Library/Class/HID/usbd_hid.o
 .text.USBD_HID_DeInit
                0x08002b14       0x1e Middlewares/STM32_USBD_Library/Class/HID/usbd_hid.o
 .text.USBD_HID_Init
                0x08002b32       0x26 Middlewares/STM32_USBD_Library/Class/HID/usbd_hid.o
 .text.USBD_HID_SendReport
                0x08002b58       0x24 Middlewares/STM32_USBD_Library/Class/HID/usbd_hid.o
                0x08002b58                USBD_HID_SendReport
 .text.USBD_HID_GetPollingInterval
                0x08002b7c        0xc Middlewares/STM32_USBD_Library/Class/HID/usbd_hid.o
                0x08002b7c                USBD_HID_GetPollingInterval
 .text.USBD_Init
                0x08002b88       0x2a Middlewares/STM32_USBD_Library/Core/usbd_core.o
                0x08002b88                USBD_Init
 .text.USBD_RegisterClass
                0x08002bb2        0xe Middlewares/STM32_USBD_Library/Core/usbd_core.o
                0x08002bb2                USBD_RegisterClass
 .text.USBD_Start
                0x08002bc0        0xa Middlewares/STM32_USBD_Library/Core/usbd_core.o
                0x08002bc0                USBD_Start
 .text.USBD_SetClassConfig
                0x08002bca       0x16 Middlewares/STM32_USBD_Library/Core/usbd_core.o
                0x08002bca                USBD_SetClassConfig
 .text.USBD_ClrClassConfig
                0x08002be0        0xe Middlewares/STM32_USBD_Library/Core/usbd_core.o
                0x08002be0                USBD_ClrClassConfig
 .text.USBD_LL_SetupStage
                0x08002bee       0x5a Middlewares/STM32_USBD_Library/Core/usbd_core.o
                0x08002bee                USBD_LL_SetupStage
 .text.USBD_LL_DataOutStage
                0x08002c48       0x64 Middlewares/STM32_USBD_Library/Core/usbd_core.o
                0x08002c48                USBD_LL_DataOutStage
 .text.USBD_LL_DataInStage
                0x08002cac       0x9e Middlewares/STM32_USBD_Library/Core/usbd_core.o
                0x08002cac                USBD_LL_DataInStage
 .text.USBD_LL_Reset
                0x08002d4a       0x3e Middlewares/STM32_USBD_Library/Core/usbd_core.o
                0x08002d4a                USBD_LL_Reset
 .text.USBD_LL_SetSpeed
                0x08002d88        0x6 Middlewares/STM32_USBD_Library/Core/usbd_core.o
                0x08002d88                USBD_LL_SetSpeed
 .text.USBD_LL_Suspend
                0x08002d8e       0x12 Middlewares/STM32_USBD_Library/Core/usbd_core.o
                0x08002d8e                USBD_LL_Suspend
 .text.USBD_LL_Resume
                0x08002da0        0xc Middlewares/STM32_USBD_Library/Core/usbd_core.o
                0x08002da0                USBD_LL_Resume
 .text.USBD_LL_SOF
                0x08002dac       0x18 Middlewares/STM32_USBD_Library/Core/usbd_core.o
                0x08002dac                USBD_LL_SOF
 .text.USBD_LL_IsoINIncomplete
                0x08002dc4        0x4 Middlewares/STM32_USBD_Library/Core/usbd_core.o
                0x08002dc4                USBD_LL_IsoINIncomplete
 .text.USBD_LL_IsoOUTIncomplete
                0x08002dc8        0x4 Middlewares/STM32_USBD_Library/Core/usbd_core.o
                0x08002dc8                USBD_LL_IsoOUTIncomplete
 .text.USBD_LL_DevConnected
                0x08002dcc        0x4 Middlewares/STM32_USBD_Library/Core/usbd_core.o
                0x08002dcc                USBD_LL_DevConnected
 .text.USBD_LL_DevDisconnected
                0x08002dd0       0x16 Middlewares/STM32_USBD_Library/Core/usbd_core.o
                0x08002dd0                USBD_LL_DevDisconnected
 .text.USBD_CtlError.constprop.0
                0x08002de6       0x16 Middlewares/STM32_USBD_Library/Core/usbd_ctlreq.o
 .text.USBD_StdDevReq
                0x08002dfc      0x1f4 Middlewares/STM32_USBD_Library/Core/usbd_ctlreq.o
                0x08002dfc                USBD_StdDevReq
 .text.USBD_StdItfReq
                0x08002ff0       0x30 Middlewares/STM32_USBD_Library/Core/usbd_ctlreq.o
                0x08002ff0                USBD_StdItfReq
 .text.USBD_StdEPReq
                0x08003020       0xc6 Middlewares/STM32_USBD_Library/Core/usbd_ctlreq.o
                0x08003020                USBD_StdEPReq
 .text.USBD_ParseSetupRequest
                0x080030e6       0x28 Middlewares/STM32_USBD_Library/Core/usbd_ctlreq.o
                0x080030e6                USBD_ParseSetupRequest
 .text.USBD_CtlError
                0x0800310e       0x16 Middlewares/STM32_USBD_Library/Core/usbd_ctlreq.o
                0x0800310e                USBD_CtlError
 .text.USBD_GetString
                0x08003124       0x38 Middlewares/STM32_USBD_Library/Core/usbd_ctlreq.o
                0x08003124                USBD_GetString
 .text.USBD_CtlSendData
                0x0800315c       0x1a Middlewares/STM32_USBD_Library/Core/usbd_ioreq.o
                0x0800315c                USBD_CtlSendData
 .text.USBD_CtlContinueSendData
                0x08003176       0x10 Middlewares/STM32_USBD_Library/Core/usbd_ioreq.o
                0x08003176                USBD_CtlContinueSendData
 .text.USBD_CtlContinueRx
                0x08003186       0x10 Middlewares/STM32_USBD_Library/Core/usbd_ioreq.o
                0x08003186                USBD_CtlContinueRx
 .text.USBD_CtlSendStatus
                0x08003196       0x16 Middlewares/STM32_USBD_Library/Core/usbd_ioreq.o
                0x08003196                USBD_CtlSendStatus
 .text.USBD_CtlReceiveStatus
                0x080031ac       0x16 Middlewares/STM32_USBD_Library/Core/usbd_ioreq.o
                0x080031ac                USBD_CtlReceiveStatus
 *fill*         0x080031c2        0x2 
 .text.__libc_init_array
                0x080031c4       0x48 c:/ac6/systemworkbench/plugins/fr.ac6.mcu.externaltools.arm-none.win32_1.15.0.201708311556/tools/compiler/bin/../lib/gcc/arm-none-eabi/6.3.1/../../../../arm-none-eabi/lib/thumb/v7e-m/fpv4-sp/hard\libc_nano.a(lib_a-init.o)
                0x080031c4                __libc_init_array
 .text.malloc   0x0800320c       0x10 c:/ac6/systemworkbench/plugins/fr.ac6.mcu.externaltools.arm-none.win32_1.15.0.201708311556/tools/compiler/bin/../lib/gcc/arm-none-eabi/6.3.1/../../../../arm-none-eabi/lib/thumb/v7e-m/fpv4-sp/hard\libc_nano.a(lib_a-malloc.o)
                0x0800320c                malloc
 .text.free     0x0800321c       0x10 c:/ac6/systemworkbench/plugins/fr.ac6.mcu.externaltools.arm-none.win32_1.15.0.201708311556/tools/compiler/bin/../lib/gcc/arm-none-eabi/6.3.1/../../../../arm-none-eabi/lib/thumb/v7e-m/fpv4-sp/hard\libc_nano.a(lib_a-malloc.o)
                0x0800321c                free
 .text._free_r  0x0800322c       0x9c c:/ac6/systemworkbench/plugins/fr.ac6.mcu.externaltools.arm-none.win32_1.15.0.201708311556/tools/compiler/bin/../lib/gcc/arm-none-eabi/6.3.1/../../../../arm-none-eabi/lib/thumb/v7e-m/fpv4-sp/hard\libc_nano.a(lib_a-nano-freer.o)
                0x0800322c                _free_r
 .text._malloc_r
                0x080032c8       0xbc c:/ac6/systemworkbench/plugins/fr.ac6.mcu.externaltools.arm-none.win32_1.15.0.201708311556/tools/compiler/bin/../lib/gcc/arm-none-eabi/6.3.1/../../../../arm-none-eabi/lib/thumb/v7e-m/fpv4-sp/hard\libc_nano.a(lib_a-nano-mallocr.o)
                0x080032c8                _malloc_r
 .text._sbrk_r  0x08003384       0x20 c:/ac6/systemworkbench/plugins/fr.ac6.mcu.externaltools.arm-none.win32_1.15.0.201708311556/tools/compiler/bin/../lib/gcc/arm-none-eabi/6.3.1/../../../../arm-none-eabi/lib/thumb/v7e-m/fpv4-sp/hard\libc_nano.a(lib_a-sbrkr.o)
                0x08003384                _sbrk_r
 .text.__malloc_lock
                0x080033a4        0x2 c:/ac6/systemworkbench/plugins/fr.ac6.mcu.externaltools.arm-none.win32_1.15.0.201708311556/tools/compiler/bin/../lib/gcc/arm-none-eabi/6.3.1/../../../../arm-none-eabi/lib/thumb/v7e-m/fpv4-sp/hard\libc_nano.a(lib_a-mlock.o)
                0x080033a4                __malloc_lock
 .text.__malloc_unlock
                0x080033a6        0x2 c:/ac6/systemworkbench/plugins/fr.ac6.mcu.externaltools.arm-none.win32_1.15.0.201708311556/tools/compiler/bin/../lib/gcc/arm-none-eabi/6.3.1/../../../../arm-none-eabi/lib/thumb/v7e-m/fpv4-sp/hard\libc_nano.a(lib_a-mlock.o)
                0x080033a6                __malloc_unlock
 .text._sbrk    0x080033a8       0x1c c:/ac6/systemworkbench/plugins/fr.ac6.mcu.externaltools.arm-none.win32_1.15.0.201708311556/tools/compiler/bin/../lib/gcc/arm-none-eabi/6.3.1/../../../../arm-none-eabi/lib/thumb/v7e-m/fpv4-sp/hard\libnosys.a(sbrk.o)
                0x080033a8                _sbrk
 *(.glue_7)
 .glue_7        0x080033c4        0x0 linker stubs
 *(.glue_7t)
 .glue_7t       0x080033c4        0x0 linker stubs
 *(.eh_frame)
 .eh_frame      0x080033c4        0x0 c:/ac6/systemworkbench/plugins/fr.ac6.mcu.externaltools.arm-none.win32_1.15.0.201708311556/tools/compiler/bin/../lib/gcc/arm-none-eabi/6.3.1/thumb/v7e-m/fpv4-sp/hard/crtbegin.o
 *(.init)
 .init          0x080033c4        0x4 c:/ac6/systemworkbench/plugins/fr.ac6.mcu.externaltools.arm-none.win32_1.15.0.201708311556/tools/compiler/bin/../lib/gcc/arm-none-eabi/6.3.1/thumb/v7e-m/fpv4-sp/hard/crti.o
                0x080033c4                _init
 .init          0x080033c8        0x8 c:/ac6/systemworkbench/plugins/fr.ac6.mcu.externaltools.arm-none.win32_1.15.0.201708311556/tools/compiler/bin/../lib/gcc/arm-none-eabi/6.3.1/thumb/v7e-m/fpv4-sp/hard/crtn.o
 *(.fini)
 .fini          0x080033d0        0x4 c:/ac6/systemworkbench/plugins/fr.ac6.mcu.externaltools.arm-none.win32_1.15.0.201708311556/tools/compiler/bin/../lib/gcc/arm-none-eabi/6.3.1/thumb/v7e-m/fpv4-sp/hard/crti.o
                0x080033d0                _fini
 .fini          0x080033d4        0x8 c:/ac6/systemworkbench/plugins/fr.ac6.mcu.externaltools.arm-none.win32_1.15.0.201708311556/tools/compiler/bin/../lib/gcc/arm-none-eabi/6.3.1/thumb/v7e-m/fpv4-sp/hard/crtn.o
                0x080033e0                . = ALIGN (0x8)
 *fill*         0x080033dc        0x4 
                0x080033e0                _etext = .

.vfp11_veneer   0x080033e0        0x0
 .vfp11_veneer  0x080033e0        0x0 linker stubs

.v4_bx          0x080033e0        0x0
 .v4_bx         0x080033e0        0x0 linker stubs

.iplt           0x080033e0        0x0
 .iplt          0x080033e0        0x0 c:/ac6/systemworkbench/plugins/fr.ac6.mcu.externaltools.arm-none.win32_1.15.0.201708311556/tools/compiler/bin/../lib/gcc/arm-none-eabi/6.3.1/thumb/v7e-m/fpv4-sp/hard/crtbegin.o

.rodata         0x080033e0       0x90
                0x080033e0                . = ALIGN (0x8)
 *(.rodata)
 .rodata        0x080033e0       0x48 Drivers/CMSIS/system_stm32l4xx.o
                0x080033e0                MSIRangeTable
                0x08003410                AHBPrescTable
                0x08003420                APBPrescTable
 *(.rodata*)
 .rodata.str1.1
                0x08003428       0x44 Application/User/usbd_desc.o
                0x08003470                . = ALIGN (0x8)
 *fill*         0x0800346c        0x4 

.rel.dyn        0x08003470        0x0
 .rel.iplt      0x08003470        0x0 c:/ac6/systemworkbench/plugins/fr.ac6.mcu.externaltools.arm-none.win32_1.15.0.201708311556/tools/compiler/bin/../lib/gcc/arm-none-eabi/6.3.1/thumb/v7e-m/fpv4-sp/hard/crtbegin.o

.ARM.extab      0x08003470        0x0
                0x08003470                . = ALIGN (0x8)
 *(.ARM.extab* .gnu.linkonce.armextab.*)
                0x08003470                . = ALIGN (0x8)

.ARM            0x08003470        0x0
                0x08003470                . = ALIGN (0x8)
                0x08003470                __exidx_start = .
 *(.ARM.exidx*)
                0x08003470                __exidx_end = .
                0x08003470                . = ALIGN (0x8)

.preinit_array  0x08003470        0x0
                0x08003470                . = ALIGN (0x8)
                0x08003470                PROVIDE (__preinit_array_start, .)
 *(.preinit_array*)
                0x08003470                PROVIDE (__preinit_array_end, .)
                0x08003470                . = ALIGN (0x8)

.init_array     0x08003470        0x8
                0x08003470                . = ALIGN (0x8)
                0x08003470                PROVIDE (__init_array_start, .)
 *(SORT(.init_array.*))
 *(.init_array*)
 .init_array    0x08003470        0x4 c:/ac6/systemworkbench/plugins/fr.ac6.mcu.externaltools.arm-none.win32_1.15.0.201708311556/tools/compiler/bin/../lib/gcc/arm-none-eabi/6.3.1/thumb/v7e-m/fpv4-sp/hard/crtbegin.o
                0x08003474                PROVIDE (__init_array_end, .)
                0x08003478                . = ALIGN (0x8)
 *fill*         0x08003474        0x4 

.fini_array     0x08003478        0x8
                0x08003478                . = ALIGN (0x8)
                [!provide]                PROVIDE (__fini_array_start, .)
 *(SORT(.fini_array.*))
 *(.fini_array*)
 .fini_array    0x08003478        0x4 c:/ac6/systemworkbench/plugins/fr.ac6.mcu.externaltools.arm-none.win32_1.15.0.201708311556/tools/compiler/bin/../lib/gcc/arm-none-eabi/6.3.1/thumb/v7e-m/fpv4-sp/hard/crtbegin.o
                [!provide]                PROVIDE (__fini_array_end, .)
                0x08003480                . = ALIGN (0x8)
 *fill*         0x0800347c        0x4 
                0x08003480                _sidata = LOADADDR (.data)

.data           0x20000000      0x190 load address 0x08003480
                0x20000000                . = ALIGN (0x8)
                0x20000000                _sdata = .
 *(.data)
 .data          0x20000000       0x50 Application/User/usbd_desc.o
                0x20000000                USBD_DeviceDesc
                0x20000014                USBD_LangIDDesc
                0x20000018                USBD_StringSerial
                0x20000034                HID_Desc
 .data          0x20000050       0x14 Drivers/BSP/B-L475E-IOT01/stm32l475e_iot01.o
                0x20000050                GPIO_PORT
                0x20000054                BUTTON_PORT
                0x20000058                COM_TX_PORT
                0x2000005c                COM_RX_PORT
                0x20000060                COM_USART
 .data          0x20000064        0x4 Drivers/CMSIS/system_stm32l4xx.o
                0x20000064                SystemCoreClock
 .data          0x20000068       0xc0 Middlewares/STM32_USBD_Library/Class/HID/usbd_hid.o
                0x200000f0                USBD_HID
 *(.data*)
 .data._impure_ptr
                0x20000128        0x4 c:/ac6/systemworkbench/plugins/fr.ac6.mcu.externaltools.arm-none.win32_1.15.0.201708311556/tools/compiler/bin/../lib/gcc/arm-none-eabi/6.3.1/../../../../arm-none-eabi/lib/thumb/v7e-m/fpv4-sp/hard\libc_nano.a(lib_a-impure.o)
                0x20000128                _impure_ptr
 .data.impure_data
                0x2000012c       0x60 c:/ac6/systemworkbench/plugins/fr.ac6.mcu.externaltools.arm-none.win32_1.15.0.201708311556/tools/compiler/bin/../lib/gcc/arm-none-eabi/6.3.1/../../../../arm-none-eabi/lib/thumb/v7e-m/fpv4-sp/hard\libc_nano.a(lib_a-impure.o)
                0x20000190                . = ALIGN (0x8)
 *fill*         0x2000018c        0x4 
                0x20000190                _edata = .

.jcr            0x20000190        0x0 load address 0x08003610
 .jcr           0x20000190        0x0 c:/ac6/systemworkbench/plugins/fr.ac6.mcu.externaltools.arm-none.win32_1.15.0.201708311556/tools/compiler/bin/../lib/gcc/arm-none-eabi/6.3.1/thumb/v7e-m/fpv4-sp/hard/crtbegin.o

.igot.plt       0x20000190        0x0 load address 0x08003610
 .igot.plt      0x20000190        0x0 c:/ac6/systemworkbench/plugins/fr.ac6.mcu.externaltools.arm-none.win32_1.15.0.201708311556/tools/compiler/bin/../lib/gcc/arm-none-eabi/6.3.1/thumb/v7e-m/fpv4-sp/hard/crtbegin.o
                0x20000190                . = ALIGN (0x4)

.bss            0x20000190      0x734 load address 0x08003610
                0x20000190                _sbss = .
                0x20000190                __bss_start__ = _sbss
 *(.bss)
 .bss           0x20000190       0x1c c:/ac6/systemworkbench/plugins/fr.ac6.mcu.externaltools.arm-none.win32_1.15.0.201708311556/tools/compiler/bin/../lib/gcc/arm-none-eabi/6.3.1/thumb/v7e-m/fpv4-sp/hard/crtbegin.o
 .bss           0x200001ac        0x5 Application/User/stm32l4xx_it.o
 *fill*         0x200001b1        0x3 
 .bss           0x200001b4        0x4 Application/User/usbd_conf.o
                0x200001b4                remotewakeupon
 .bss           0x200001b8        0x1 Middlewares/STM32_USBD_Library/Core/usbd_ctlreq.o
 *(.bss*)
 *fill*         0x200001b9        0x3 
 .bss.__malloc_free_list
                0x200001bc        0x4 c:/ac6/systemworkbench/plugins/fr.ac6.mcu.externaltools.arm-none.win32_1.15.0.201708311556/tools/compiler/bin/../lib/gcc/arm-none-eabi/6.3.1/../../../../arm-none-eabi/lib/thumb/v7e-m/fpv4-sp/hard\libc_nano.a(lib_a-nano-mallocr.o)
                0x200001bc                __malloc_free_list
 .bss.__malloc_sbrk_start
                0x200001c0        0x4 c:/ac6/systemworkbench/plugins/fr.ac6.mcu.externaltools.arm-none.win32_1.15.0.201708311556/tools/compiler/bin/../lib/gcc/arm-none-eabi/6.3.1/../../../../arm-none-eabi/lib/thumb/v7e-m/fpv4-sp/hard\libc_nano.a(lib_a-nano-mallocr.o)
                0x200001c0                __malloc_sbrk_start
 .bss.heap_end.5239
                0x200001c4        0x4 c:/ac6/systemworkbench/plugins/fr.ac6.mcu.externaltools.arm-none.win32_1.15.0.201708311556/tools/compiler/bin/../lib/gcc/arm-none-eabi/6.3.1/../../../../arm-none-eabi/lib/thumb/v7e-m/fpv4-sp/hard\libnosys.a(sbrk.o)
 *(COMMON)
 COMMON         0x200001c8      0x224 Application/User/main.o
                0x200001c8                USBD_Device
 COMMON         0x200003ec        0x4 Application/User/stm32l4xx_it.o
                0x200003ec                HID_Buffer
 COMMON         0x200003f0      0x3cc Application/User/usbd_conf.o
                0x200003f0                hpcd
 COMMON         0x200007bc      0x100 Application/User/usbd_desc.o
                0x200007bc                USBD_StrDesc
 COMMON         0x200008bc        0x4 Drivers/STM32L4xx_HAL_Driver/stm32l4xx_hal.o
                0x200008bc                uwTick
 COMMON         0x200008c0        0x4 c:/ac6/systemworkbench/plugins/fr.ac6.mcu.externaltools.arm-none.win32_1.15.0.201708311556/tools/compiler/bin/../lib/gcc/arm-none-eabi/6.3.1/../../../../arm-none-eabi/lib/thumb/v7e-m/fpv4-sp/hard\libc_nano.a(lib_a-reent.o)
                0x200008c0                errno
                0x200008c4                . = ALIGN (0x4)
                0x200008c4                _ebss = .
                0x200008c4                __bss_end__ = _ebss

._user_heap_stack
                0x200008c4      0x604 load address 0x08003610
                0x200008c8                . = ALIGN (0x8)
 *fill*         0x200008c4        0x4 
                0x200008c8                PROVIDE (end, .)
                [!provide]                PROVIDE (_end, .)
                0x20000ac8                . = (. + _Min_Heap_Size)
 *fill*         0x200008c8      0x200 
                0x20000ec8                . = (. + _Min_Stack_Size)
 *fill*         0x20000ac8      0x400 
                0x20000ec8                . = ALIGN (0x8)

/DISCARD/
 libc.a(*)
 libm.a(*)
 libgcc.a(*)

.ARM.attributes
                0x00000000       0x30
 *(.ARM.attributes)
 .ARM.attributes
                0x00000000       0x22 c:/ac6/systemworkbench/plugins/fr.ac6.mcu.externaltools.arm-none.win32_1.15.0.201708311556/tools/compiler/bin/../lib/gcc/arm-none-eabi/6.3.1/thumb/v7e-m/fpv4-sp/hard/crti.o
 .ARM.attributes
                0x00000022       0x34 c:/ac6/systemworkbench/plugins/fr.ac6.mcu.externaltools.arm-none.win32_1.15.0.201708311556/tools/compiler/bin/../lib/gcc/arm-none-eabi/6.3.1/thumb/v7e-m/fpv4-sp/hard/crtbegin.o
 .ARM.attributes
                0x00000056       0x21 Application/SW4STM32/startup_stm32l475xx.o
 .ARM.attributes
                0x00000077       0x39 Application/User/main.o
 .ARM.attributes
                0x000000b0       0x39 Application/User/stm32l4xx_it.o
 .ARM.attributes
                0x000000e9       0x39 Application/User/usbd_conf.o
 .ARM.attributes
                0x00000122       0x39 Application/User/usbd_desc.o
 .ARM.attributes
                0x0000015b       0x39 Drivers/BSP/B-L475E-IOT01/stm32l475e_iot01.o
 .ARM.attributes
                0x00000194       0x39 Drivers/CMSIS/system_stm32l4xx.o
 .ARM.attributes
                0x000001cd       0x39 Drivers/STM32L4xx_HAL_Driver/stm32l4xx_hal.o
 .ARM.attributes
                0x00000206       0x39 Drivers/STM32L4xx_HAL_Driver/stm32l4xx_hal_cortex.o
 .ARM.attributes
                0x0000023f       0x39 Drivers/STM32L4xx_HAL_Driver/stm32l4xx_hal_gpio.o
 .ARM.attributes
                0x00000278       0x39 Drivers/STM32L4xx_HAL_Driver/stm32l4xx_hal_pcd.o
 .ARM.attributes
                0x000002b1       0x39 Drivers/STM32L4xx_HAL_Driver/stm32l4xx_hal_pcd_ex.o
 .ARM.attributes
                0x000002ea       0x39 Drivers/STM32L4xx_HAL_Driver/stm32l4xx_hal_pwr_ex.o
 .ARM.attributes
                0x00000323       0x39 Drivers/STM32L4xx_HAL_Driver/stm32l4xx_hal_rcc.o
 .ARM.attributes
                0x0000035c       0x39 Drivers/STM32L4xx_HAL_Driver/stm32l4xx_hal_rcc_ex.o
 .ARM.attributes
                0x00000395       0x39 Drivers/STM32L4xx_HAL_Driver/stm32l4xx_ll_usb.o
 .ARM.attributes
                0x000003ce       0x39 Middlewares/STM32_USBD_Library/Class/HID/usbd_hid.o
 .ARM.attributes
                0x00000407       0x39 Middlewares/STM32_USBD_Library/Core/usbd_core.o
 .ARM.attributes
                0x00000440       0x39 Middlewares/STM32_USBD_Library/Core/usbd_ctlreq.o
 .ARM.attributes
                0x00000479       0x39 Middlewares/STM32_USBD_Library/Core/usbd_ioreq.o
 .ARM.attributes
                0x000004b2       0x34 c:/ac6/systemworkbench/plugins/fr.ac6.mcu.externaltools.arm-none.win32_1.15.0.201708311556/tools/compiler/bin/../lib/gcc/arm-none-eabi/6.3.1/../../../../arm-none-eabi/lib/thumb/v7e-m/fpv4-sp/hard\libc_nano.a(lib_a-impure.o)
 .ARM.attributes
                0x000004e6       0x34 c:/ac6/systemworkbench/plugins/fr.ac6.mcu.externaltools.arm-none.win32_1.15.0.201708311556/tools/compiler/bin/../lib/gcc/arm-none-eabi/6.3.1/../../../../arm-none-eabi/lib/thumb/v7e-m/fpv4-sp/hard\libc_nano.a(lib_a-init.o)
 .ARM.attributes
                0x0000051a       0x34 c:/ac6/systemworkbench/plugins/fr.ac6.mcu.externaltools.arm-none.win32_1.15.0.201708311556/tools/compiler/bin/../lib/gcc/arm-none-eabi/6.3.1/../../../../arm-none-eabi/lib/thumb/v7e-m/fpv4-sp/hard\libc_nano.a(lib_a-malloc.o)
 .ARM.attributes
                0x0000054e       0x34 c:/ac6/systemworkbench/plugins/fr.ac6.mcu.externaltools.arm-none.win32_1.15.0.201708311556/tools/compiler/bin/../lib/gcc/arm-none-eabi/6.3.1/../../../../arm-none-eabi/lib/thumb/v7e-m/fpv4-sp/hard\libc_nano.a(lib_a-nano-freer.o)
 .ARM.attributes
                0x00000582       0x34 c:/ac6/systemworkbench/plugins/fr.ac6.mcu.externaltools.arm-none.win32_1.15.0.201708311556/tools/compiler/bin/../lib/gcc/arm-none-eabi/6.3.1/../../../../arm-none-eabi/lib/thumb/v7e-m/fpv4-sp/hard\libc_nano.a(lib_a-nano-mallocr.o)
 .ARM.attributes
                0x000005b6       0x34 c:/ac6/systemworkbench/plugins/fr.ac6.mcu.externaltools.arm-none.win32_1.15.0.201708311556/tools/compiler/bin/../lib/gcc/arm-none-eabi/6.3.1/../../../../arm-none-eabi/lib/thumb/v7e-m/fpv4-sp/hard\libc_nano.a(lib_a-sbrkr.o)
 .ARM.attributes
                0x000005ea       0x34 c:/ac6/systemworkbench/plugins/fr.ac6.mcu.externaltools.arm-none.win32_1.15.0.201708311556/tools/compiler/bin/../lib/gcc/arm-none-eabi/6.3.1/../../../../arm-none-eabi/lib/thumb/v7e-m/fpv4-sp/hard\libc_nano.a(lib_a-mlock.o)
 .ARM.attributes
                0x0000061e       0x34 c:/ac6/systemworkbench/plugins/fr.ac6.mcu.externaltools.arm-none.win32_1.15.0.201708311556/tools/compiler/bin/../lib/gcc/arm-none-eabi/6.3.1/../../../../arm-none-eabi/lib/thumb/v7e-m/fpv4-sp/hard\libc_nano.a(lib_a-reent.o)
 .ARM.attributes
                0x00000652       0x34 c:/ac6/systemworkbench/plugins/fr.ac6.mcu.externaltools.arm-none.win32_1.15.0.201708311556/tools/compiler/bin/../lib/gcc/arm-none-eabi/6.3.1/../../../../arm-none-eabi/lib/thumb/v7e-m/fpv4-sp/hard\libnosys.a(sbrk.o)
 .ARM.attributes
                0x00000686       0x22 c:/ac6/systemworkbench/plugins/fr.ac6.mcu.externaltools.arm-none.win32_1.15.0.201708311556/tools/compiler/bin/../lib/gcc/arm-none-eabi/6.3.1/thumb/v7e-m/fpv4-sp/hard/crtn.o
OUTPUT(B-L475E-IOT01_USBD-FS.elf elf32-littlearm)

.debug_line     0x00000000     0xde4e
 .debug_line    0x00000000       0xf8 Application/SW4STM32/startup_stm32l475xx.o
 .debug_line    0x000000f8      0xb35 Application/User/main.o
 .debug_line    0x00000c2d      0xbb1 Application/User/stm32l4xx_it.o
 .debug_line    0x000017de      0xd95 Application/User/usbd_conf.o
 .debug_line    0x00002573      0xab4 Application/User/usbd_desc.o
 .debug_line    0x00003027      0xbd6 Drivers/BSP/B-L475E-IOT01/stm32l475e_iot01.o
 .debug_line    0x00003bfd      0x953 Drivers/CMSIS/system_stm32l4xx.o
 .debug_line    0x00004550      0xb0a Drivers/STM32L4xx_HAL_Driver/stm32l4xx_hal.o
 .debug_line    0x0000505a      0xac9 Drivers/STM32L4xx_HAL_Driver/stm32l4xx_hal_cortex.o
 .debug_line    0x00005b23      0xa9d Drivers/STM32L4xx_HAL_Driver/stm32l4xx_hal_gpio.o
 .debug_line    0x000065c0      0xd3b Drivers/STM32L4xx_HAL_Driver/stm32l4xx_hal_pcd.o
 .debug_line    0x000072fb      0x9ba Drivers/STM32L4xx_HAL_Driver/stm32l4xx_hal_pcd_ex.o
 .debug_line    0x00007cb5      0xc6d Drivers/STM32L4xx_HAL_Driver/stm32l4xx_hal_pwr_ex.o
 .debug_line    0x00008922      0xc09 Drivers/STM32L4xx_HAL_Driver/stm32l4xx_hal_rcc.o
 .debug_line    0x0000952b      0xd8f Drivers/STM32L4xx_HAL_Driver/stm32l4xx_hal_rcc_ex.o
 .debug_line    0x0000a2ba      0xef2 Drivers/STM32L4xx_HAL_Driver/stm32l4xx_ll_usb.o
 .debug_line    0x0000b1ac      0xb44 Middlewares/STM32_USBD_Library/Class/HID/usbd_hid.o
 .debug_line    0x0000bcf0      0xbb2 Middlewares/STM32_USBD_Library/Core/usbd_core.o
 .debug_line    0x0000c8a2      0xb43 Middlewares/STM32_USBD_Library/Core/usbd_ctlreq.o
 .debug_line    0x0000d3e5      0xa69 Middlewares/STM32_USBD_Library/Core/usbd_ioreq.o

.debug_info     0x00000000    0x1af4d
 .debug_info    0x00000000      0x15e Application/SW4STM32/startup_stm32l475xx.o
 .debug_info    0x0000015e     0x19b4 Application/User/main.o
 .debug_info    0x00001b12     0x13fc Application/User/stm32l4xx_it.o
 .debug_info    0x00002f0e     0x23f4 Application/User/usbd_conf.o
 .debug_info    0x00005302      0xdd3 Application/User/usbd_desc.o
 .debug_info    0x000060d5     0x2a09 Drivers/BSP/B-L475E-IOT01/stm32l475e_iot01.o
 .debug_info    0x00008ade      0xde9 Drivers/CMSIS/system_stm32l4xx.o
 .debug_info    0x000098c7     0x130f Drivers/STM32L4xx_HAL_Driver/stm32l4xx_hal.o
 .debug_info    0x0000abd6     0x1701 Drivers/STM32L4xx_HAL_Driver/stm32l4xx_hal_cortex.o
 .debug_info    0x0000c2d7     0x1095 Drivers/STM32L4xx_HAL_Driver/stm32l4xx_hal_gpio.o
 .debug_info    0x0000d36c     0x1e63 Drivers/STM32L4xx_HAL_Driver/stm32l4xx_hal_pcd.o
 .debug_info    0x0000f1cf     0x12c4 Drivers/STM32L4xx_HAL_Driver/stm32l4xx_hal_pcd_ex.o
 .debug_info    0x00010493     0x12b5 Drivers/STM32L4xx_HAL_Driver/stm32l4xx_hal_pwr_ex.o
 .debug_info    0x00011748     0x1595 Drivers/STM32L4xx_HAL_Driver/stm32l4xx_hal_rcc.o
 .debug_info    0x00012cdd     0x1803 Drivers/STM32L4xx_HAL_Driver/stm32l4xx_hal_rcc_ex.o
 .debug_info    0x000144e0     0x1f77 Drivers/STM32L4xx_HAL_Driver/stm32l4xx_ll_usb.o
 .debug_info    0x00016457     0x1187 Middlewares/STM32_USBD_Library/Class/HID/usbd_hid.o
 .debug_info    0x000175de     0x149f Middlewares/STM32_USBD_Library/Core/usbd_core.o
 .debug_info    0x00018a7d     0x14d2 Middlewares/STM32_USBD_Library/Core/usbd_ctlreq.o
 .debug_info    0x00019f4f      0xffe Middlewares/STM32_USBD_Library/Core/usbd_ioreq.o

.debug_abbrev   0x00000000     0x3aae
 .debug_abbrev  0x00000000       0x12 Application/SW4STM32/startup_stm32l475xx.o
 .debug_abbrev  0x00000012      0x2c2 Application/User/main.o
 .debug_abbrev  0x000002d4      0x329 Application/User/stm32l4xx_it.o
 .debug_abbrev  0x000005fd      0x324 Application/User/usbd_conf.o
 .debug_abbrev  0x00000921      0x2b3 Application/User/usbd_desc.o
 .debug_abbrev  0x00000bd4      0x455 Drivers/BSP/B-L475E-IOT01/stm32l475e_iot01.o
 .debug_abbrev  0x00001029      0x226 Drivers/CMSIS/system_stm32l4xx.o
 .debug_abbrev  0x0000124f      0x304 Drivers/STM32L4xx_HAL_Driver/stm32l4xx_hal.o
 .debug_abbrev  0x00001553      0x3a9 Drivers/STM32L4xx_HAL_Driver/stm32l4xx_hal_cortex.o
 .debug_abbrev  0x000018fc      0x2a3 Drivers/STM32L4xx_HAL_Driver/stm32l4xx_hal_gpio.o
 .debug_abbrev  0x00001b9f      0x3b5 Drivers/STM32L4xx_HAL_Driver/stm32l4xx_hal_pcd.o
 .debug_abbrev  0x00001f54      0x31f Drivers/STM32L4xx_HAL_Driver/stm32l4xx_hal_pcd_ex.o
 .debug_abbrev  0x00002273      0x302 Drivers/STM32L4xx_HAL_Driver/stm32l4xx_hal_pwr_ex.o
 .debug_abbrev  0x00002575      0x32b Drivers/STM32L4xx_HAL_Driver/stm32l4xx_hal_rcc.o
 .debug_abbrev  0x000028a0      0x327 Drivers/STM32L4xx_HAL_Driver/stm32l4xx_hal_rcc_ex.o
 .debug_abbrev  0x00002bc7      0x313 Drivers/STM32L4xx_HAL_Driver/stm32l4xx_ll_usb.o
 .debug_abbrev  0x00002eda      0x29d Middlewares/STM32_USBD_Library/Class/HID/usbd_hid.o
 .debug_abbrev  0x00003177      0x341 Middlewares/STM32_USBD_Library/Core/usbd_core.o
 .debug_abbrev  0x000034b8      0x3e3 Middlewares/STM32_USBD_Library/Core/usbd_ctlreq.o
 .debug_abbrev  0x0000389b      0x213 Middlewares/STM32_USBD_Library/Core/usbd_ioreq.o

.debug_aranges  0x00000000      0xbc8
 .debug_aranges
                0x00000000       0x28 Application/SW4STM32/startup_stm32l475xx.o
 .debug_aranges
                0x00000028       0x20 Application/User/main.o
 .debug_aranges
                0x00000048       0x58 Application/User/stm32l4xx_it.o
 .debug_aranges
                0x000000a0      0x108 Application/User/usbd_conf.o
 .debug_aranges
                0x000001a8       0x58 Application/User/usbd_desc.o
 .debug_aranges
                0x00000200       0xe8 Drivers/BSP/B-L475E-IOT01/stm32l475e_iot01.o
 .debug_aranges
                0x000002e8       0x28 Drivers/CMSIS/system_stm32l4xx.o
 .debug_aranges
                0x00000310      0x110 Drivers/STM32L4xx_HAL_Driver/stm32l4xx_hal.o
 .debug_aranges
                0x00000420       0x98 Drivers/STM32L4xx_HAL_Driver/stm32l4xx_hal_cortex.o
 .debug_aranges
                0x000004b8       0x58 Drivers/STM32L4xx_HAL_Driver/stm32l4xx_hal_gpio.o
 .debug_aranges
                0x00000510       0xc0 Drivers/STM32L4xx_HAL_Driver/stm32l4xx_hal_pcd.o
 .debug_aranges
                0x000005d0       0x58 Drivers/STM32L4xx_HAL_Driver/stm32l4xx_hal_pcd_ex.o
 .debug_aranges
                0x00000628      0x130 Drivers/STM32L4xx_HAL_Driver/stm32l4xx_hal_pwr_ex.o
 .debug_aranges
                0x00000758       0x88 Drivers/STM32L4xx_HAL_Driver/stm32l4xx_hal_rcc.o
 .debug_aranges
                0x000007e0       0xb8 Drivers/STM32L4xx_HAL_Driver/stm32l4xx_hal_rcc_ex.o
 .debug_aranges
                0x00000898      0x190 Drivers/STM32L4xx_HAL_Driver/stm32l4xx_ll_usb.o
 .debug_aranges
                0x00000a28       0x58 Middlewares/STM32_USBD_Library/Class/HID/usbd_hid.o
 .debug_aranges
                0x00000a80       0xa8 Middlewares/STM32_USBD_Library/Core/usbd_core.o
 .debug_aranges
                0x00000b28       0x50 Middlewares/STM32_USBD_Library/Core/usbd_ctlreq.o
 .debug_aranges
                0x00000b78       0x50 Middlewares/STM32_USBD_Library/Core/usbd_ioreq.o

.debug_ranges   0x00000000      0xd40
 .debug_ranges  0x00000000       0x20 Application/SW4STM32/startup_stm32l475xx.o
 .debug_ranges  0x00000020       0x10 Application/User/main.o
 .debug_ranges  0x00000030       0x60 Application/User/stm32l4xx_it.o
 .debug_ranges  0x00000090      0x130 Application/User/usbd_conf.o
 .debug_ranges  0x000001c0       0x48 Application/User/usbd_desc.o
 .debug_ranges  0x00000208      0x190 Drivers/BSP/B-L475E-IOT01/stm32l475e_iot01.o
 .debug_ranges  0x00000398       0x18 Drivers/CMSIS/system_stm32l4xx.o
 .debug_ranges  0x000003b0      0x100 Drivers/STM32L4xx_HAL_Driver/stm32l4xx_hal.o
 .debug_ranges  0x000004b0      0x128 Drivers/STM32L4xx_HAL_Driver/stm32l4xx_hal_cortex.o
 .debug_ranges  0x000005d8       0x68 Drivers/STM32L4xx_HAL_Driver/stm32l4xx_hal_gpio.o
 .debug_ranges  0x00000640       0xc8 Drivers/STM32L4xx_HAL_Driver/stm32l4xx_hal_pcd.o
 .debug_ranges  0x00000708       0x48 Drivers/STM32L4xx_HAL_Driver/stm32l4xx_hal_pcd_ex.o
 .debug_ranges  0x00000750      0x120 Drivers/STM32L4xx_HAL_Driver/stm32l4xx_hal_pwr_ex.o
 .debug_ranges  0x00000870       0x90 Drivers/STM32L4xx_HAL_Driver/stm32l4xx_hal_rcc.o
 .debug_ranges  0x00000900       0xe0 Drivers/STM32L4xx_HAL_Driver/stm32l4xx_hal_rcc_ex.o
 .debug_ranges  0x000009e0      0x180 Drivers/STM32L4xx_HAL_Driver/stm32l4xx_ll_usb.o
 .debug_ranges  0x00000b60       0x48 Middlewares/STM32_USBD_Library/Class/HID/usbd_hid.o
 .debug_ranges  0x00000ba8       0x98 Middlewares/STM32_USBD_Library/Core/usbd_core.o
 .debug_ranges  0x00000c40       0xc0 Middlewares/STM32_USBD_Library/Core/usbd_ctlreq.o
 .debug_ranges  0x00000d00       0x40 Middlewares/STM32_USBD_Library/Core/usbd_ioreq.o

.debug_macro    0x00000000    0x2834f
 .debug_macro   0x00000000      0x3f3 Application/User/main.o
 .debug_macro   0x000003f3      0x8da Application/User/main.o
 .debug_macro   0x00000ccd       0xb2 Application/User/main.o
 .debug_macro   0x00000d7f       0x2e Application/User/main.o
 .debug_macro   0x00000dad       0x28 Application/User/main.o
 .debug_macro   0x00000dd5       0x22 Application/User/main.o
 .debug_macro   0x00000df7       0x87 Application/User/main.o
 .debug_macro   0x00000e7e       0x51 Application/User/main.o
 .debug_macro   0x00000ecf       0xef Application/User/main.o
 .debug_macro   0x00000fbe       0x6a Application/User/main.o
 .debug_macro   0x00001028      0x1df Application/User/main.o
 .debug_macro   0x00001207       0x35 Application/User/main.o
 .debug_macro   0x0000123c       0x50 Application/User/main.o
 .debug_macro   0x0000128c      0xe66 Application/User/main.o
 .debug_macro   0x000020f2    0x19e3d Application/User/main.o
 .debug_macro   0x0001bf2f       0x43 Application/User/main.o
 .debug_macro   0x0001bf72     0x369a Application/User/main.o
 .debug_macro   0x0001f60c       0x58 Application/User/main.o
 .debug_macro   0x0001f664       0x35 Application/User/main.o
 .debug_macro   0x0001f699       0x9c Application/User/main.o
 .debug_macro   0x0001f735       0x16 Application/User/main.o
 .debug_macro   0x0001f74b       0x97 Application/User/main.o
 .debug_macro   0x0001f7e2      0x330 Application/User/main.o
 .debug_macro   0x0001fb12       0xfd Application/User/main.o
 .debug_macro   0x0001fc0f       0x10 Application/User/main.o
 .debug_macro   0x0001fc1f       0x58 Application/User/main.o
 .debug_macro   0x0001fc77       0x1f Application/User/main.o
 .debug_macro   0x0001fc96       0x43 Application/User/main.o
 .debug_macro   0x0001fcd9       0x20 Application/User/main.o
 .debug_macro   0x0001fcf9      0x187 Application/User/main.o
 .debug_macro   0x0001fe80       0x10 Application/User/main.o
 .debug_macro   0x0001fe90       0x1c Application/User/main.o
 .debug_macro   0x0001feac       0x52 Application/User/main.o
 .debug_macro   0x0001fefe       0x40 Application/User/main.o
 .debug_macro   0x0001ff3e       0x10 Application/User/main.o
 .debug_macro   0x0001ff4e       0x40 Application/User/main.o
 .debug_macro   0x0001ff8e       0xd7 Application/User/main.o
 .debug_macro   0x00020065       0x16 Application/User/main.o
 .debug_macro   0x0002007b      0x18b Application/User/main.o
 .debug_macro   0x00020206       0x57 Application/User/main.o
 .debug_macro   0x0002025d     0x1520 Application/User/main.o
 .debug_macro   0x0002177d      0x59e Application/User/main.o
 .debug_macro   0x00021d1b      0x148 Application/User/main.o
 .debug_macro   0x00021e63      0x17d Application/User/main.o
 .debug_macro   0x00021fe0      0x26b Application/User/main.o
 .debug_macro   0x0002224b      0x23a Application/User/main.o
 .debug_macro   0x00022485      0x367 Application/User/main.o
 .debug_macro   0x000227ec       0x10 Application/User/main.o
 .debug_macro   0x000227fc       0xe4 Application/User/main.o
 .debug_macro   0x000228e0      0x202 Application/User/main.o
 .debug_macro   0x00022ae2       0x61 Application/User/main.o
 .debug_macro   0x00022b43       0x90 Application/User/main.o
 .debug_macro   0x00022bd3      0x126 Application/User/main.o
 .debug_macro   0x00022cf9      0x3db Application/User/main.o
 .debug_macro   0x000230d4      0x535 Application/User/main.o
 .debug_macro   0x00023609       0x44 Application/User/main.o
 .debug_macro   0x0002364d      0x1d1 Application/User/main.o
 .debug_macro   0x0002381e       0xa5 Application/User/main.o
 .debug_macro   0x000238c3      0x325 Application/User/main.o
 .debug_macro   0x00023be8       0x16 Application/User/main.o
 .debug_macro   0x00023bfe       0x35 Application/User/main.o
 .debug_macro   0x00023c33       0x16 Application/User/main.o
 .debug_macro   0x00023c49       0x29 Application/User/main.o
 .debug_macro   0x00023c72       0x16 Application/User/main.o
 .debug_macro   0x00023c88       0x52 Application/User/main.o
 .debug_macro   0x00023cda      0x1c9 Application/User/main.o
 .debug_macro   0x00023ea3       0x1c Application/User/main.o
 .debug_macro   0x00023ebf       0x6a Application/User/main.o
 .debug_macro   0x00023f29      0x1cf Application/User/main.o
 .debug_macro   0x000240f8      0x403 Application/User/stm32l4xx_it.o
 .debug_macro   0x000244fb      0x3f3 Application/User/usbd_conf.o
 .debug_macro   0x000248ee      0x3f1 Application/User/usbd_desc.o
 .debug_macro   0x00024cdf      0x34c Drivers/BSP/B-L475E-IOT01/stm32l475e_iot01.o
 .debug_macro   0x0002502b      0x1c9 Drivers/BSP/B-L475E-IOT01/stm32l475e_iot01.o
 .debug_macro   0x000251f4      0x326 Drivers/CMSIS/system_stm32l4xx.o
 .debug_macro   0x0002551a      0x36d Drivers/STM32L4xx_HAL_Driver/stm32l4xx_hal.o
 .debug_macro   0x00025887      0x31f Drivers/STM32L4xx_HAL_Driver/stm32l4xx_hal_cortex.o
 .debug_macro   0x00025ba6      0x35e Drivers/STM32L4xx_HAL_Driver/stm32l4xx_hal_gpio.o
 .debug_macro   0x00025f04      0x337 Drivers/STM32L4xx_HAL_Driver/stm32l4xx_hal_pcd.o
 .debug_macro   0x0002623b      0x31f Drivers/STM32L4xx_HAL_Driver/stm32l4xx_hal_pcd_ex.o
 .debug_macro   0x0002655a      0x343 Drivers/STM32L4xx_HAL_Driver/stm32l4xx_hal_pwr_ex.o
 .debug_macro   0x0002689d      0x361 Drivers/STM32L4xx_HAL_Driver/stm32l4xx_hal_rcc.o
 .debug_macro   0x00026bfe      0x355 Drivers/STM32L4xx_HAL_Driver/stm32l4xx_hal_rcc_ex.o
 .debug_macro   0x00026f53      0x32d Drivers/STM32L4xx_HAL_Driver/stm32l4xx_ll_usb.o
 .debug_macro   0x00027280      0x3e0 Middlewares/STM32_USBD_Library/Class/HID/usbd_hid.o
 .debug_macro   0x00027660      0x1c3 Middlewares/STM32_USBD_Library/Class/HID/usbd_hid.o
 .debug_macro   0x00027823      0x3b4 Middlewares/STM32_USBD_Library/Core/usbd_core.o
 .debug_macro   0x00027bd7      0x3be Middlewares/STM32_USBD_Library/Core/usbd_ctlreq.o
 .debug_macro   0x00027f95      0x3ba Middlewares/STM32_USBD_Library/Core/usbd_ioreq.o

.debug_str      0x00000000    0xe625e
 .debug_str     0x00000000    0xe1d71 Application/User/main.o
                              0xe21dc (size before relaxing)
 .debug_str     0x000e1d71      0x1fd Application/User/stm32l4xx_it.o
                              0xe1cdd (size before relaxing)
 .debug_str     0x000e1f6e      0xa77 Application/User/usbd_conf.o
                              0xe27ee (size before relaxing)
 .debug_str     0x000e29e5      0x2db Application/User/usbd_desc.o
                              0xe0904 (size before relaxing)
 .debug_str     0x000e2cc0      0xcf3 Drivers/BSP/B-L475E-IOT01/stm32l475e_iot01.o
                              0xe1cda (size before relaxing)
 .debug_str     0x000e39b3       0xec Drivers/CMSIS/system_stm32l4xx.o
                              0xdfd38 (size before relaxing)
 .debug_str     0x000e3a9f      0x5e1 Drivers/STM32L4xx_HAL_Driver/stm32l4xx_hal.o
                              0xe081a (size before relaxing)
 .debug_str     0x000e4080      0x325 Drivers/STM32L4xx_HAL_Driver/stm32l4xx_hal_cortex.o
                              0xe0502 (size before relaxing)
 .debug_str     0x000e43a5      0x1e4 Drivers/STM32L4xx_HAL_Driver/stm32l4xx_hal_gpio.o
                              0xdffd5 (size before relaxing)
 .debug_str     0x000e4589      0x5a8 Drivers/STM32L4xx_HAL_Driver/stm32l4xx_hal_pcd.o
                              0xe0705 (size before relaxing)
 .debug_str     0x000e4b31      0x1ab Drivers/STM32L4xx_HAL_Driver/stm32l4xx_hal_pcd_ex.o
                              0xe01fb (size before relaxing)
 .debug_str     0x000e4cdc      0x4e0 Drivers/STM32L4xx_HAL_Driver/stm32l4xx_hal_pwr_ex.o
                              0xe0210 (size before relaxing)
 .debug_str     0x000e51bc      0x3e0 Drivers/STM32L4xx_HAL_Driver/stm32l4xx_hal_rcc.o
                              0xe032c (size before relaxing)
 .debug_str     0x000e559c      0x3c2 Drivers/STM32L4xx_HAL_Driver/stm32l4xx_hal_rcc_ex.o
                              0xe04cd (size before relaxing)
 .debug_str     0x000e595e      0x414 Drivers/STM32L4xx_HAL_Driver/stm32l4xx_ll_usb.o
                              0xe0574 (size before relaxing)
 .debug_str     0x000e5d72      0x1db Middlewares/STM32_USBD_Library/Class/HID/usbd_hid.o
                              0xe0cac (size before relaxing)
 .debug_str     0x000e5f4d      0x174 Middlewares/STM32_USBD_Library/Core/usbd_core.o
                              0xe0b45 (size before relaxing)
 .debug_str     0x000e60c1      0x100 Middlewares/STM32_USBD_Library/Core/usbd_ctlreq.o
                              0xe0a5f (size before relaxing)
 .debug_str     0x000e61c1       0x9d Middlewares/STM32_USBD_Library/Core/usbd_ioreq.o
                              0xe098c (size before relaxing)

.comment        0x00000000       0x7f
 .comment       0x00000000       0x7f Application/User/main.o
                                 0x80 (size before relaxing)
 .comment       0x0000007f       0x80 Application/User/stm32l4xx_it.o
 .comment       0x0000007f       0x80 Application/User/usbd_conf.o
 .comment       0x0000007f       0x80 Application/User/usbd_desc.o
 .comment       0x0000007f       0x80 Drivers/BSP/B-L475E-IOT01/stm32l475e_iot01.o
 .comment       0x0000007f       0x80 Drivers/CMSIS/system_stm32l4xx.o
 .comment       0x0000007f       0x80 Drivers/STM32L4xx_HAL_Driver/stm32l4xx_hal.o
 .comment       0x0000007f       0x80 Drivers/STM32L4xx_HAL_Driver/stm32l4xx_hal_cortex.o
 .comment       0x0000007f       0x80 Drivers/STM32L4xx_HAL_Driver/stm32l4xx_hal_gpio.o
 .comment       0x0000007f       0x80 Drivers/STM32L4xx_HAL_Driver/stm32l4xx_hal_pcd.o
 .comment       0x0000007f       0x80 Drivers/STM32L4xx_HAL_Driver/stm32l4xx_hal_pcd_ex.o
 .comment       0x0000007f       0x80 Drivers/STM32L4xx_HAL_Driver/stm32l4xx_hal_pwr_ex.o
 .comment       0x0000007f       0x80 Drivers/STM32L4xx_HAL_Driver/stm32l4xx_hal_rcc.o
 .comment       0x0000007f       0x80 Drivers/STM32L4xx_HAL_Driver/stm32l4xx_hal_rcc_ex.o
 .comment       0x0000007f       0x80 Drivers/STM32L4xx_HAL_Driver/stm32l4xx_ll_usb.o
 .comment       0x0000007f       0x80 Middlewares/STM32_USBD_Library/Class/HID/usbd_hid.o
 .comment       0x0000007f       0x80 Middlewares/STM32_USBD_Library/Core/usbd_core.o
 .comment       0x0000007f       0x80 Middlewares/STM32_USBD_Library/Core/usbd_ctlreq.o
 .comment       0x0000007f       0x80 Middlewares/STM32_USBD_Library/Core/usbd_ioreq.o

.debug_frame    0x00000000     0x1f50
 .debug_frame   0x00000000       0x2c Application/User/main.o
 .debug_frame   0x0000002c       0xcc Application/User/stm32l4xx_it.o
 .debug_frame   0x000000f8      0x298 Application/User/usbd_conf.o
 .debug_frame   0x00000390       0xc4 Application/User/usbd_desc.o
 .debug_frame   0x00000454      0x2d4 Drivers/BSP/B-L475E-IOT01/stm32l475e_iot01.o
 .debug_frame   0x00000728       0x3c Drivers/CMSIS/system_stm32l4xx.o
 .debug_frame   0x00000764      0x240 Drivers/STM32L4xx_HAL_Driver/stm32l4xx_hal.o
 .debug_frame   0x000009a4      0x138 Drivers/STM32L4xx_HAL_Driver/stm32l4xx_hal_cortex.o
 .debug_frame   0x00000adc       0xdc Drivers/STM32L4xx_HAL_Driver/stm32l4xx_hal_gpio.o
 .debug_frame   0x00000bb8      0x2c8 Drivers/STM32L4xx_HAL_Driver/stm32l4xx_hal_pcd.o
 .debug_frame   0x00000e80       0xb8 Drivers/STM32L4xx_HAL_Driver/stm32l4xx_hal_pcd_ex.o
 .debug_frame   0x00000f38      0x278 Drivers/STM32L4xx_HAL_Driver/stm32l4xx_hal_pwr_ex.o
 .debug_frame   0x000011b0      0x14c Drivers/STM32L4xx_HAL_Driver/stm32l4xx_hal_rcc.o
 .debug_frame   0x000012fc      0x1f0 Drivers/STM32L4xx_HAL_Driver/stm32l4xx_hal_rcc_ex.o
 .debug_frame   0x000014ec      0x4d4 Drivers/STM32L4xx_HAL_Driver/stm32l4xx_ll_usb.o
 .debug_frame   0x000019c0       0xb4 Middlewares/STM32_USBD_Library/Class/HID/usbd_hid.o
 .debug_frame   0x00001a74      0x1c0 Middlewares/STM32_USBD_Library/Core/usbd_core.o
 .debug_frame   0x00001c34       0xcc Middlewares/STM32_USBD_Library/Core/usbd_ctlreq.o
 .debug_frame   0x00001d00       0xb8 Middlewares/STM32_USBD_Library/Core/usbd_ioreq.o
 .debug_frame   0x00001db8       0x2c c:/ac6/systemworkbench/plugins/fr.ac6.mcu.externaltools.arm-none.win32_1.15.0.201708311556/tools/compiler/bin/../lib/gcc/arm-none-eabi/6.3.1/../../../../arm-none-eabi/lib/thumb/v7e-m/fpv4-sp/hard\libc_nano.a(lib_a-init.o)
 .debug_frame   0x00001de4       0x30 c:/ac6/systemworkbench/plugins/fr.ac6.mcu.externaltools.arm-none.win32_1.15.0.201708311556/tools/compiler/bin/../lib/gcc/arm-none-eabi/6.3.1/../../../../arm-none-eabi/lib/thumb/v7e-m/fpv4-sp/hard\libc_nano.a(lib_a-malloc.o)
 .debug_frame   0x00001e14       0x38 c:/ac6/systemworkbench/plugins/fr.ac6.mcu.externaltools.arm-none.win32_1.15.0.201708311556/tools/compiler/bin/../lib/gcc/arm-none-eabi/6.3.1/../../../../arm-none-eabi/lib/thumb/v7e-m/fpv4-sp/hard\libc_nano.a(lib_a-nano-freer.o)
 .debug_frame   0x00001e4c       0x2c c:/ac6/systemworkbench/plugins/fr.ac6.mcu.externaltools.arm-none.win32_1.15.0.201708311556/tools/compiler/bin/../lib/gcc/arm-none-eabi/6.3.1/../../../../arm-none-eabi/lib/thumb/v7e-m/fpv4-sp/hard\libc_nano.a(lib_a-nano-mallocr.o)
 .debug_frame   0x00001e78       0x2c c:/ac6/systemworkbench/plugins/fr.ac6.mcu.externaltools.arm-none.win32_1.15.0.201708311556/tools/compiler/bin/../lib/gcc/arm-none-eabi/6.3.1/../../../../arm-none-eabi/lib/thumb/v7e-m/fpv4-sp/hard\libc_nano.a(lib_a-sbrkr.o)
 .debug_frame   0x00001ea4       0x30 c:/ac6/systemworkbench/plugins/fr.ac6.mcu.externaltools.arm-none.win32_1.15.0.201708311556/tools/compiler/bin/../lib/gcc/arm-none-eabi/6.3.1/../../../../arm-none-eabi/lib/thumb/v7e-m/fpv4-sp/hard\libc_nano.a(lib_a-mlock.o)
 .debug_frame   0x00001ed4       0x5c c:/ac6/systemworkbench/plugins/fr.ac6.mcu.externaltools.arm-none.win32_1.15.0.201708311556/tools/compiler/bin/../lib/gcc/arm-none-eabi/6.3.1/../../../../arm-none-eabi/lib/thumb/v7e-m/fpv4-sp/hard\libc_nano.a(lib_a-reent.o)
 .debug_frame   0x00001f30       0x20 c:/ac6/systemworkbench/plugins/fr.ac6.mcu.externaltools.arm-none.win32_1.15.0.201708311556/tools/compiler/bin/../lib/gcc/arm-none-eabi/6.3.1/../../../../arm-none-eabi/lib/thumb/v7e-m/fpv4-sp/hard\libnosys.a(sbrk.o)

.debug_loc      0x00000000     0x6d5a
 .debug_loc     0x00000000       0x4b Application/User/stm32l4xx_it.o
 .debug_loc     0x0000004b      0x66e Application/User/usbd_conf.o
 .debug_loc     0x000006b9      0x275 Application/User/usbd_desc.o
 .debug_loc     0x0000092e      0x9c8 Drivers/BSP/B-L475E-IOT01/stm32l475e_iot01.o
 .debug_loc     0x000012f6      0x1be Drivers/CMSIS/system_stm32l4xx.o
 .debug_loc     0x000014b4       0xf8 Drivers/STM32L4xx_HAL_Driver/stm32l4xx_hal.o
 .debug_loc     0x000015ac      0x4da Drivers/STM32L4xx_HAL_Driver/stm32l4xx_hal_cortex.o
 .debug_loc     0x00001a86      0x2cd Drivers/STM32L4xx_HAL_Driver/stm32l4xx_hal_gpio.o
 .debug_loc     0x00001d53      0xb92 Drivers/STM32L4xx_HAL_Driver/stm32l4xx_hal_pcd.o
 .debug_loc     0x000028e5      0x1d5 Drivers/STM32L4xx_HAL_Driver/stm32l4xx_hal_pcd_ex.o
 .debug_loc     0x00002aba      0x5ad Drivers/STM32L4xx_HAL_Driver/stm32l4xx_hal_pwr_ex.o
 .debug_loc     0x00003067      0x56c Drivers/STM32L4xx_HAL_Driver/stm32l4xx_hal_rcc.o
 .debug_loc     0x000035d3      0xdab Drivers/STM32L4xx_HAL_Driver/stm32l4xx_hal_rcc_ex.o
 .debug_loc     0x0000437e     0x15d3 Drivers/STM32L4xx_HAL_Driver/stm32l4xx_ll_usb.o
 .debug_loc     0x00005951      0x40e Middlewares/STM32_USBD_Library/Class/HID/usbd_hid.o
 .debug_loc     0x00005d5f      0x5f2 Middlewares/STM32_USBD_Library/Core/usbd_core.o
 .debug_loc     0x00006351      0x7cd Middlewares/STM32_USBD_Library/Core/usbd_ctlreq.o
 .debug_loc     0x00006b1e      0x23c Middlewares/STM32_USBD_Library/Core/usbd_ioreq.o
